:020000041000EA
:1000000000B5324B212058609868022188439860DF
:10001000D860186158612E4B002199600221596106
:100020000121F02299502B49196001219960352056
:1000300000F044F80222904214D00621196600F024
:1000400034F8196E01211966002018661A6600F04E
:100050002CF8196E196E196E052000F02FF8012189
:100060000842F9D1002199601B49196000215960AB
:100070001A491B48016001219960EB211966A021F2
:10008000196600F012F800219960164914480160C1
:100090000121996001BC002800D000471248134993
:1000A000086003C880F30888084703B5996A0420EC
:1000B0000142FBD001200142F8D103BD02B5186610
:1000C0001866FFF7F2FF186E186E02BD00000240BE
:1000D000000000180000070000035F00212200005C
:1000E000F4000018222000A00001001008ED00E03C
:1000F00000000000000000000000000074B24E7A12
:1001000000200420F7010010C3010010C5010010F9
:10011000C1010010C1010010C1010010C101001097
:10012000C1010010C1010010C1010010C701001081
:10013000C1010010C1010010C9010010CB01001065
:10014000CD010010CD010010CD010010CD01001037
:10015000CD010010CD010010CD010010CD01001027
:10016000CD010010CD010010CD010010CD01001017
:10017000CD010010CD010010CD010010CD01001007
:10018000CD010010CD010010CD010010CD010010F7
:10019000CD010010CD010010CD010010CD010010E7
:1001A000CD010010CD010010CD010010CD010010D7
:1001B000CD010010CD010010CD010010CD010010C7
:1001C00000BE00BE00BE00BE00BE00BE00F04BF888
:1001D000103800BEF2EB88713C2F0010602F001029
:1001E0003402001090A31AE700202149086006C8D5
:1001F00081F3088810471F48006800282FD10DA4FC
:100200000ECC002902D000F012F8F9E71A491B4A77
:10021000002000E001C19142FCD1194988471949E9
:1002200088471949884700BEFDE701C901C29A42C3
:10023000FBD37047602F0010C0000020240700206F
:10024000C43500100000042000000420C435001054
:1002500000100420001004200000000070470B482C
:1002600002F092F80047EFF30580C0B2704700003B
:1002700008ED00E0000000D028070020DCA00020EE
:10028000611E0010A9060010511F001057560000F3
:1002900006005250ABB360536C2E00100600525053
:1002A000861C03027C2E0010060052505422A29D90
:1002B000902E001005005250DE65F468C435001021
:1002C000F8B5C0460448054B10B5834203D0044B33
:1002D000002B00D0984710BD2407002024070020E1
:1002E0000000000006480749091A8B10C90FC918F9
:1002F00010B5491003D0044B002B00D0984710BD17
:1003000024070020240700200000000010B5074C3F
:100310002378002B09D1FFF7D5FF054B002B02D026
:10032000044800E000BF0123237010BD280800200E
:1003300000000000882D0010054B10B5002B03D0E5
:100340000449054800E000BFFFF7CCFF10BDC046E0
:10035000000000002C080020882D0010F0B54F464A
:10036000D6464646C0B5071E2BD0394A394B1278BF
:100370009A4649081B68002A28D14000C019FF325C
:100380003F250024944618180DE017000F3F092F51
:100390004FD91E3A092A51D91C705C709C700333E6
:1003A000013198420BD02A000A40092AEDD8624652
:1003B0001C705A709C70033301319842F3D153463C
:1003C00018601CBC90469946A246F0BDFF24081850
:1003D00084461A003F200025A14608E04C461570CF
:1003E00054709570D57001310432614513D004000A
:1003F0000C40092CF2D90F267642B046A04446465E
:10040000092E0DD84C460131157055709470D57079
:1004100004326145EBD1B800181853461860D0E794
:100420001E3C092C0FD84C46557014709570D57031
:10043000D9E762461C705C709A70B0E762465C70E7
:100440001A709C70ABE7157055709570D570CAE73F
:10045000CF9E002084380020F8B5040008006421F5
:1004600001F0C0FF002C22D01D4B1E4A1B781568DE
:10047000002B1DD000232E0000279C460B025B188A
:100480001B025B183370180A1B0CB37063460131F2
:100490007070F37001370436642903D1A74203D08A
:1004A0000021EBE7A742E9D1A4002C191460F8BDA4
:1004B000600004192C190B025B181B025B182B70CF
:1004C000180A01311B0C6870AB700335642902D027
:1004D000AC42F0D1EAE7AC42E8D00021EBE7C046FD
:1004E000CF9E002084380020002210B5034B044822
:1004F0001A6002F019FC0020002110BDD49E0020DB
:10050000E83C0020F0B5C646060000B54B071AD1FE
:10051000002818D00023002498460C4D0C4F02F000
:10052000B1FB2B68020A5A70DA1C2A603A781870FC
:10053000000C9870002A03D01A1D2A604246DA7017
:100540000134B442EBD104BC9046F0BD84380020A5
:10055000CF9E0020F8B5CE464746060080B54B0733
:1005600021D100281FD0124B0024984600230F27CA
:100570009946104D02F086FB3840434243412A68B9
:100580005B42190A13701B0C937043461B78517021
:10059000D11C2960002B03D0131D2B604B46D37058
:1005A0000134B442E6D10CBC90469946F8BDC04631
:1005B000CF9E002084380020A0220121F0B5194BE5
:1005C000D205D05885B001421DD0174FD1503C689C
:1005D000002C20D100F068FF060001F0DFF8C822EF
:1005E00004000D000023520012196B4199420ED8ED
:1005F0000BD001210291002101910C4930000091A2
:1006000000F056FF386005B0F0BD9042F1D90122EC
:100610005242D317EDE700F047FF210001F01EF82A
:10062000D8E7C0460C040000D49E0020E904001066
:1006300070B5050003200C0002F0FAFA134B9D423E
:1006400022D023000833124ADB031A43A0230021DF
:1006500008200434A400DB052C1919605C60012417
:1006600098601A610B4B0C4A19605A600B4A9C60E7
:100670000B491A61033000F0D9FB0A4B01210B2012
:100680001C6000F0B9FB70BD2300DCE700002050C7
:1006900019082000400000503C00005019881F003D
:1006A000B905001004240050F0B5DE464E4645461C
:1006B0005746E0B59BB002F053F95E4802F01AF9D4
:1006C0005D495E4802F0B6F906210500022000F0FF
:1006D0001FFB0621032000F01BFB01230222002147
:1006E00056480093013302F017FA00238022159335
:1006F000F823C0245B0252021292139324031022A7
:1007000012A916A8149401F0CBFF80235B02169364
:10071000EB1CEA011B03134316A9102212A817931E
:10072000189401F0BDFF464B464A052014921593DC
:1007300001F08CFD01F030FF434901F012FF061C6F
:1007400001F052FF84B20023002C0DD0200001F0F4
:1007500023FF011C301C01F0FEFE8721C90501F0BA
:1007600014FF01F041FFC3B224041B022343334CA6
:100770002A0020000021129312AB02F011FA01228C
:100780002368012113432360304800F0C1FC20009E
:100790000021FFF74DFF0023119301339B460324F3
:1007A00002F070FA044002F06DFA430000D411E246
:1007B00002F068FA5B46034200D011E2244BE400E9
:1007C0001B19586802F096F8012322480F9302F093
:1007D00091F81F4B1B591093119B0A93FA239B000E
:1007E0000C9300230B9309930D931B4B0A9D1B68DD
:1007F00029000293029A194B109C1A600022184B90
:1008000040201A70A047174B29001B684020029314
:10081000029A124B00271A605A46114B1A70A047D1
:10082000114B124D1B682E009A460F4B0E955C68BB
:10083000554635E0A82D0010002E00100000205075
:100840004200200800000E400024F44AE83C00204A
:10085000E02D0010902D00100C02002084380020A4
:10086000CF9E002018020020240200205C080020F7
:1008700002239A460293994698469C460393049312
:100880000222059306930793089363689F4200D260
:1008900085E08023013730365B009F4200D1EEE0D7
:1008A00030220021300001F0F5FE6B68BB42DFD939
:1008B0002B68AA68DB5D5343099A1B0A53431A0A43
:1008C000D6D05946114200D094E1022292465A0AEB
:1008D00000D195E15946114200D094E102220292E2
:1008E0009A0A00D195E15946114200D093E10222C3
:1008F0009146DA0A00D194E15946114200D096E1BE
:10090000022290461A0B00D197E15946114200D0BD
:1009100098E1022294465A0B00D199E159461142BE
:1009200000D099E1022203929A0B00D19AE1594634
:10093000114200D099E102220492DA0B00D19AE12F
:100940005946114200D098E1022205921A0C00D1BA
:1009500099E15946114200D09BE1022206925A0CBD
:1009600000D19CE15946114200D09DE1022207923C
:100970009A0C00D19EE15946114200D09EE102221C
:1009800008920222DB0C00D17FE75946194200D1C0
:100990007BE76368316001329F4200D379E72368C7
:1009A000A168DB5D4B4309991B0A4B43190A00D12F
:1009B0006FE75846084201D05146F162590A8A460B
:1009C00000D166E759465046014201D00299B16212
:1009D000980A00D15DE75946014201D0494671624B
:1009E000D80A00D155E75946014201D0414631624B
:1009F000180B00D14DE75946014201D06146F16123
:100A0000580B00D145E75946014201D00399B16125
:100A1000990B00D13DE75846084201D00499716115
:100A2000D90B00D135E75846084201D0059931610C
:100A3000190C00D12DE75846084201D00699F16003
:100A4000590C00D125E75846084201D00799B160FA
:100A5000990C00D11DE75846084201D008997160F1
:100A6000DB0C00D115E75946194200D111E780236C
:100A7000013732605B0030369F4200D010E70D9B9B
:100A80005A461C000B9B0E9D9C46534064449C465A
:100A90005A000D9262441003C0220B93934B9201B3
:100AA0009C469046924B2403644420304344604467
:100AB00022009C46C768EE6A3B00374073403E0008
:100AC000D3628368A96A59404E409662AE6A394043
:100AD0001E400E43310047686B6A7B4059405162AB
:100AE000696A1E40394031430B0007682E6A303076
:100AF0007E40734013622B6A31403B400B43E969EF
:100B00000E005E400B40D6611E00A9694E400B40AE
:100B100096611E0069694E400B4056611E002969AE
:100B20004E400B4016611E00E9684E400B40D660F7
:100B30001E00A9680B404E4096601E0069684E403A
:100B400019402B6830355940566011603032654588
:100B5000B0D1684802F000F9674B684A10C33034DE
:100B60009A42FAD180230021634ADB00D150644BC2
:100B7000DA630F9A0A9B944663440A93099B0133F4
:100B80001A00099380239B009A4200D19AE00C9BA3
:100B9000013B0C93002B00D027E6119B53481A0011
:100BA0000F9B032419009C46DB005B1A1B015B1A98
:100BB000D90062445B189B18C0220021D201119316
:100BC00001F068FD02F05EF8044002F05BF84300BB
:100BD00000D5EDE502F056F85B46034200D17AE01D
:100BE000484BE4001B19586801F084FE0023464876
:100BF0000F93ECE50322F16292465A0A00D069E6AF
:100C00000223029337E60322B16202929A0A00D0CD
:100C100069E602232FE6032271629146DA0A00D0C8
:100C20006AE6022398469C460393049328E603222F
:100C3000316290461A0B00D067E602239C4603936C
:100C400004931DE60322F16194465A0B00D065E639
:100C500002230393049313E60322B16103929A0BD8
:100C600000D064E6022304930AE603227161049231
:100C7000DA0B00D064E6022302E60322316105921A
:100C80001A0C00D065E6022302220693079308930C
:100C9000FBE50322F16006925A0C00D062E60223C3
:100CA000022207930893F0E50322B16007929A0CA1
:100CB00000D060E6022302220893E6E50322716079
:100CC00008925EE60C9B013B0C93002B00D164E77D
:100CD0000023099389E50B4BE4001B19586801F0C8
:100CE00009FE01235B4209480F9370E5F83C0020A0
:100CF0005C080020E83C0020D0380020D03C0020D8
:100D000040000050E02D0010882D00109C2D001098
:100D1000094A830094464022634410B51C68C00011
:100D20006240C02414408022520113431C60034BD4
:100D30009C466044416010BD04C001400040014039
:100D4000EFF3108072B6034A1368002BFCD0BFF398
:100D50005F8F70472C0100D0BFF35F8F0022024BE2
:100D60001A6080F3108870472C0100D0F8B5EFF3BB
:100D7000108772B60E4E3368002BFCD0BFF35F8F26
:100D8000CB08C4180725A446C45C01230D40AB4022
:100D900018002040234208D1624623431370BFF35A
:100DA0005F8F306087F31088F8BD100001F0D2F833
:100DB0002C0100D0024B18688007C00F7047C04656
:100DC00000C006400021044B044ABFF35F8F02C3FA
:100DD0009342FAD17047C046000100D0800100D094
:100DE000044A1078431CDBB2172B00D91023137070
:100DF0007047C0462C02002001238340002904D004
:100E0000034A1360034A13607047034A1360FBE709
:100E100080E200E000E100E080E100E0024B103001
:100E20009B688000C058704700ED00E070B50D0071
:100E3000EFF3108672B60F4A1368002BFCD0BFF395
:100E40005F8F0D4B10309B6884001B590B4A9342F7
:100E500003D09D4201D001F095F8074B9B681D51CE
:100E6000BFF35F8FBFF35F8F0022024B1A6086F3E0
:100E7000108870BD240100D000ED00E0CD0100100D
:100E8000F0B5DE4657464E464546E0B50C0083B009
:100E9000EFF3108A72B65A4A1368002BFCD0BFF3E6
:100EA0005F8F1022914681444A46564B96009B68BC
:100EB0009D59554B98469D4205D0A54216D0534F9B
:100EC000EB1B2F2B14D94F4B9B689D51BFF35F8FAA
:100ED000BFF35F8F00224A4B1A608AF3108803B079
:100EE0003CBC90469946A246AB46F0BD1D00EAE7E1
:100EF000012383409B465A46454B1B681A4000928B
:100F00005A46444B1A60BFF35F8FFFF7ACF901906C
:100F1000002803D0814501D001F034F801232A00D4
:100F20009A4393689C4208D160E04B005B189B0099
:100F3000FB189968A14211D01A00062151560029C8
:100F4000F3DA009B002B05D05A46334B1A60304B26
:100F50001A60B8E75A462F4B1A60B4E70621595673
:100F6000002922DB4A00501880003C188046A06807
:100F70009860E079D871062020569871A0797F2872
:100F800024D8A488F81A6405241544440019E024E0
:100F90000005400D24022043988052181F4B9200F8
:100FA000BF181A781970BA71CBE70199002910D1CE
:100FB000FF3191711A49918018490A789A71194A3A
:100FC000DB1B5B415A43120D0A70BAE7BD200002D9
:100FD000E2E7154A1549D21A083A5002400D01437A
:100FE0009980134952080A43DA80AAE7062151562C
:100FF00013000029B6DA019A002AEAD14546DBE758
:10100000240100D000ED00E0CD01001030020020EE
:1010100000E100E080E100E080E200E0D09E0020FE
:1010200000BDFFFFAAAA00006A02002000F0FFFF37
:1010300000F8FFFFF8B5012504000543FFF713F999
:101040000300EFF3108672B621490A68002AFCD02B
:10105000BFF35F8F1F4A20001F49801A4041414360
:10106000090D1E489B00876849B2FF58AF421CD04B
:101070000623D3568B421CD01223D3568B4222D048
:101080001E23D3568B4220D02A23D35603208B42D3
:1010900010D0134B1A781970A271BFF35F8F002222
:1010A0000B4B1A6086F31088F8BD82680D48D0504B
:1010B000EFE7002043001B189B00D218FF23937119
:1010C000094B9380E5E70120F4E70220F2E7C046F0
:1010D000240100D030020020AAAA000000ED00E0A8
:1010E000D09E0020CD01001000BDFFFF054B064A39
:1010F0001360064A136053609360D36013615361B9
:10110000936170478080808000E400E004E400E0A8
:1011100070B504000E001500FFF762FE010020000C
:1011200000F006F8A680E580BFF35F8F70BDC04673
:10113000024B9C46614489000160704740000034C6
:1011400083680B4810B5844661446244090112016A
:101150009A18591854684B6801209C4201D802D053
:101160000020C0B210BD12680B689A42F9D8F7E7A8
:10117000FFFFFF0FF8B5574645464E46DE46E0B541
:1011800099460CAB19780DAB1B78050090469A4632
:101190000768002912D1BE7B002E45D074003B6841
:1011A000A419033C1B195A783100BA73002A00D1E4
:1011B000FA7300229A705A701A7003E00E004C0005
:1011C0006418033C2C4B00229C46AB6861449C464F
:1011D0004346090161440B604B464B600A9B8B60A0
:1011E0000B9BCB603B681B199A705A701A707B7B03
:1011F0009B46002B2CD032005946B8687B68984734
:101200003A68002817D05B4658465B005B441419C7
:10121000033BA070D118D35C002B00D063705B46F9
:101220000E707B73B34514D030003CBC9046994699
:10123000A246AB46F8BD5B465B005B44033BD3185C
:101240009E701119125D002A00D05A705B460B7017
:101250007E7342464B46287D00F0F0FA041E06D00D
:101260005346002B03D13100286800F02DFD0E9B62
:10127000002BD9D01C70D7E7FFFFFF0FF0B5DE467B
:101280004E46574645460023E0B58DB00A936B4B5A
:101290008200D3580B90994600239B464B460793F8
:1012A00000F07CFA079C06000F006268EFF31085DF
:1012B00072B61368002BFCD022000794BFF35F8F37
:1012C0002468637B9946002B67D092685C4B9046FC
:1012D0004B441B01984443461A685B681000190090
:1012E000801BB94100295FDD0B9800F0A7FA0023AD
:1012F0000026984600279A46079C6368BFF35F8FD5
:101300005A461A6085F310885346002B08D10028EE
:10131000C6D10DB03CBC90469946A246AB46F0BD46
:101320000A9B414618024B461843D0470890099142
:101330006268EFF3108572B61368002BFCD0079437
:10134000BFF35F8F0899099A002A48DB114303D045
:10135000079B1B69002B5DD1079B1B68DA7B002A6A
:1013600007D051008A1819688C4649466244033AEE
:1013700051704A46DA734B46079A013BD168CA5C02
:101380000132CA545B46079A13615368BFF35F8FFB
:101390005A461A6085F3108882E700230026984693
:1013A00000279A460020A7E7002901D100289BD1F9
:1013B0000021200000F0EAFB43461E685F689B683E
:1013C000079A9A464346DB689846D3684B44013BEC
:1013D0001B780A931B020343136100208CE72369E7
:1013E000002BB9D033003C005B1A94411A00230053
:1013F000A74219D89F421BD059460491012103915D
:101400004946029141460191514607980091FFF7E4
:10141000B1FEB7E700F0C2F9089A099B06000F0079
:1014200092197B419942E5D901225242D317E3E751
:101430009642E1D901225242D317DDE7D83C002081
:10144000FFFFFF0F10B5124C6368002B04D00A2178
:101450001048FFF76DFE10BD23000F4A10212068D1
:1014600000F0B2FA032000F08DF9032000F058FAE2
:1014700003200A4900F09CF9FFF7B2FC084B9C4698
:10148000032360442375074B80006060DC60DEE767
:1014900078020020F43C0020411100107D12001061
:1014A00040000034D83C00200048704778020020FB
:1014B000F0B557464546DE464E46E0B585B0019349
:1014C00010AB1B7800270393002380469A460092B6
:1014D00043465A68EFF3108972B61368002BFCD0AC
:1014E000BFF35F8F43461D68AC7B002C4FD0660076
:1014F0002B683619033E9B195A78AA73002A00D12B
:10150000EA7342469F705F701F709268524B944618
:101510000099019AE3181B01634419605A600E9AFE
:101520009A600F9ADA602B689B199F705F701F702A
:101530006B7B9B46002B46D022001900A8686B6885
:1015400098472A68002831D05B4658465B005B44C8
:101550009619033BB070D118D35C002B00D0737088
:101560005B460C706B735C452ED04346DB681B19E1
:10157000013B187843465B68BFF35F8F1F6089F3B8
:1015800010885346002B2ED10002204307E05B68F1
:10159000BFF35F8F1C6089F310880120404205B0C3
:1015A0003CBC90469946A246AB46F0BD5B465B000C
:1015B0005B44033BD3189C709119925D002A00D0C4
:1015C0005A705B460B706C734346187D009A019B02
:1015D00000F034F982460028C7D04346210018683D
:1015E00000F072FBC1E7039B002B32D00E9B002062
:1015F0000F999847030004000D000B4329D00029E0
:101600000DDA0098019902000B00121BAB419942C0
:1016100015D81AD000920193039B9A4658E700F020
:10162000BDF802000B00A4185D41200029000090C5
:101630000191AB4203D8EFD100998A42ECD9012342
:101640005B42DC1700930194E6E700999142E1D9EF
:10165000F5E70020A3E7C046FFFFFF0F70B5426823
:101660000400EFF3108572B61368002BFCD0BFF3B3
:101670005F8F2068CAB2437B93420AD0FF230B409E
:101680005E00F3180668B4466344033B9B78002B66
:1016900013D0E668FF23B4460B406344013B090ABC
:1016A0001E78C9B28E420DD000206368BFF35F8FF1
:1016B00000221A6085F3108870BD22698A42F3D136
:1016C0002361F1E7110000F0FFFAEEE7F0B5D6462E
:1016D0004F464646C0B5EFF305833F22134018003E
:1016E0001038EFF3108C72B6204D2A68002AFCD017
:1016F000BFF35F8F0122110081401D4C884661635A
:101700001C4917000E788A463100C1400F400A423A
:1017100015D019498200646A51588C4219D3174B6D
:10172000D25843469E4353461E70BFF35F8F00233B
:101730002B608CF31088002A06D0904704E0BFF39A
:101740005F8F2F608CF310881CBC90469946A24690
:10175000F0BD0B4A9B00904643441A681A60BFF3E1
:101760005F8F00232B608CF31088EDE7280100D0F9
:1017700000400540D19E0020B89E00204C0800206B
:10178000D03F054010B50100024A0348FFF7EEFACA
:1017900010BDC046102E0010CE9E0020034B596A8B
:1017A0000A00986A596A8A42FAD170470040054097
:1017B00070B504000D00EFF3108672B61A4A136874
:1017C000002BFCD0BFF35F8F002D1BD02000FFF754
:1017D00025FB164981420AD02000FFF727FB012193
:1017E0002000FFF709FB0123A340114A1360114BAE
:1017F000A400E550BFF35F8F00220B4B1A6086F305
:10180000108870BD0B4BA200D5500122A2400A499E
:1018100020000B7893430B700449FFF731FB002144
:101820002000FFF7E9FAE5E7280100D0CD16001007
:10183000386005404C080020D19E0020F0B54F468E
:10184000D6464646C0B50700304C616A0D00A66A10
:10185000616AA942FAD18B4208D805D001201CBC8C
:1018600090469946A246F0BDB242F7D9EFF31089EF
:1018700072B6274801680029FCD0BFF35F8F0125AD
:101880002449BD408C460978204C0E002E438846E2
:10189000F1B28A46614650460870391D1E488900DB
:1018A00065630A51B9000B50216A0020294219D002
:1018B000616A0800A66A616A8142FAD18B4219D82E
:1018C00001D1B24216D8C2451DD0104B1F201D6257
:1018D0005D6301230740BB40104A1E381360634616
:1018E00042461A70BFF35F8F0022094B1A6089F3DA
:1018F0001088B4E70020BFF35F8F0022044B1A600A
:1019000089F31088ABE70120ECE7C04600400540B2
:10191000280100D0D19E0020B89E002080E200E087
:1019200010B5EFF3108472B60A490B68002BFCD097
:10193000BFF35F8F01238340074A08481362027890
:101940009A430270BFF35F8F00230B6084F310880B
:1019500010BDC046280100D000400540D19E0020A7
:1019600070B505000E001400002924D0002A24D0F0
:1019700080686B689847296800280ED063001B199F
:101980007200033B9219CB18033A9E7088188A5C48
:10199000002A14D1047030000EE073009B1962001D
:1019A000033B1219CB18033A9C7088188A5C002AF2
:1019B00000D05A700670200070BD0800FCE75A7015
:1019C00004703000F8E7C04630B583600023CCB225
:1019D00043730133047342608373C4730D00006862
:1019E000012C06D9421C0133DBB2137003329C4236
:1019F000F9D1FF2129404B00591800234018033822
:101A0000437030BDF8B5CE46474606000C0080B5A1
:101A1000002907D04D0003686D18033D5A19577807
:101A2000002F04D120000CBC90469946F8BD7900E7
:101A3000C9190339884643445978894600215970A9
:101A4000517073683A002100806898473368002815
:101A500014D042469A18947059195B5D002B00D03F
:101A600053700F70270049463000FFF7CBFF390055
:101A700002003000FFF774FF0400D3E742464146FE
:101A80005D19AF709A185B5C002B00D06B701470FE
:101A9000E9E7C046F0B557464546DE464E46E0B556
:101AA0000D006B0001685B19DF1E0400C85D83B088
:101AB0000192CA1900284CD043001B18033BCB18D5
:101AC0005E78B446002E16D1019E002E3ED0E67BF5
:101AD000002E04D073009B19CB18033B5D70E57397
:101AE00000282FD10023537003B03CBC9046994688
:101AF000A246AB46F0BD72006244033A89184A78A8
:101B0000904600224A7091465A700100320020002F
:101B1000FFF726FF43468246002B07D05B00216873
:101B20004344033BCB185A78002A16D1424651460B
:101B30002000FFF715FF2168019BCA19002BC6D1B1
:101B40000028CFD043001B18033BCB18002199700D
:101B5000C8E7019B002BBAD1C4E7500080180338B6
:101B60000918487883464846487058704146200016
:101B7000FFF7F6FE594680462000FFF743FF414637
:101B800002002000FFF7ECFE8046CFE7F0B54E469E
:101B90004546DE465746E0B5467B040075000068C2
:101BA000AD19033D83B00191415D421900294ED02A
:101BB0004B005B18033BC3185F78BC46002F18D15D
:101BC000019D002D40D0E57B002D04D06B005B19FA
:101BD000C318033B5E70E673002931D10023300047
:101BE0005370617303B03CBC90469946A246AB4625
:101BF000F0BD7A006244033A80184278934600228E
:101C0000427091465A7020003A00FFF7A9FE5B46E9
:101C10008046002B07D05B0021685B44033BCB1858
:101C20005A78002A17D15A4641462000FFF798FEFD
:101C3000019B010020684219002BC4D10029CDD09E
:101C40004B005B18033BC31800209870C6E7019B4C
:101C5000002BB8D1C2E75000801803380918487823
:101C6000824648464870587059462000FFF778FE73
:101C700053468346002B07D05B0021685344033B47
:101C8000CB185A78002A06D1594652462000FFF751
:101C900067FE8346C7E75000801803380918484696
:101CA0004F784870587051462000FFF759FE3900B0
:101CB00081462000FFF7A6FE494602002000FFF7FC
:101CC0004FFE8246E0E7C04670B5040000292CD0E4
:101CD000437B8B422ED005684800401803382818F3
:101CE0008278002A21D053009B18033BEA5CEE184F
:101CF0008A4202D11BE0002A08D053009B18033B04
:101D0000EB185A788A42F6D142785A7000230122A1
:101D1000837043702000FFF7BDFE617B020020004E
:101D2000FFF71EFE6073012000E0002070BD4378C5
:101D30003370EBE701221900FFF7ACFE607301205E
:101D4000F4E7C04610B50400FFF74AF80100200090
:101D5000FFF7EEF9FF232371BFF35F8F10BDC0467D
:101D600010B50400FFF73CF801002000FFF7E0F990
:101D7000FF23A380BFF35F8F10BDC046F8B50400FA
:101D800006200D0000F062FA002845D02B4B2C49AC
:101D9000E3185A4253418022D20394465B421340D7
:101DA000284A63441360284A136018008A689043E5
:101DB000FBD1224B8021E3185A425341234A5B0056
:101DC00049000620995200F041FA2900C00000F0B5
:101DD00009FBC30921D14027012226008025626228
:101DE000A36200232C36AD0135432B60062000F0A2
:101DF0002DFA3900800000F0F5FA6023E26A5340C2
:101E00006E221A4080235B0133431A60104B236318
:101E100010232B600D3BA364F8BD0E4A934203D9F7
:101E200000230D4F0D4AD8E77F22104001304008B3
:101E30009F011A003F180300CFE7C0460080FCBF97
:101E400000C0004000E0004000F00040D89E0020AC
:101E500001030000FEFF0000C0FF3F00FFFF000085
:101E60002C4B2D4A70B51A602C4A2D4B2D491A6007
:101E700010008B689843FBD12B4C2C4B9C4209D211
:101E8000013B1D1BAD080135AD002D1908CC98474D
:101E9000AC42FBD100F07CF8254A214B1A60214A64
:101EA0009368DB018033FBD14022224B224C234D2F
:101EB0009A675A671A67DA66AC4208D2236820002C
:101EC000002B21D00834FFF74BFFAC42F6D31C4C5B
:101ED0001C4DA168C022280000F0E2FBA560FEF7BF
:101EE00071FFFFF703F9FFF7ADFA174C174B9C4250
:101EF00009D2013B1D1BAD080135AD002D1908CCE1
:101F00009847A542FBD170BD0834FFF71BFFAC42D8
:101F1000D4D3DCE700E00040BFCDFBFEFE7F3C00F9
:101F200000F0004000C00040100700202007002003
:101F3000FFFFFF0100F0014008070020100700200C
:101F400000ED00E000000020200700202407002012
:101F500000BEFDE70FB400B5084883B000F0CAFC2E
:101F6000049B002B07D005A91800019100F0ECF9A3
:101F7000034800F0BFFC00BEFDE7C046342E001051
:101F8000442E001010B50148FFF7E4FF482E001062
:101F900030B50C2083B000F0B3F9FEF70BFF00283A
:101FA0000ED0944B944A1A605A609A60DA601A61B3
:101FB0005A619A61DA611A62904A5A6203B030BD7E
:101FC0008F4CA06700F0A4F901228E4B1A60636C5D
:101FD000012BFCD103228C4B1A60894A936B012B95
:101FE000FCD101330121894A89480093043300F070
:101FF00033F90523874A00930121874800F02CF923
:10200000864B5A68FF2A02D8802252005A608022EA
:10201000784C7D4B21691201804D1A60002905D052
:10202000606900F0DFF901300138FDD1E0217B4B20
:1020300002201A681140802252012A431160196857
:10204000484003210140116004219A681142FCD0EC
:102050008022802192012A430901116080225200CE
:102060005A606F4B23616F4B5968FF2900D85A6043
:1020700003226C48634B01211A60020093681942E5
:10208000FCD0E02513681D4080235B0103431D60E5
:1020900012684A400321114019600221614A936885
:1020A0001942FCD0802380219B0103430901196060
:1020B00080215D4B4900516063615C4B5A68FF2A87
:1020C00000D8596080225A4BE1691201574D1A60BD
:1020D000002905D0606900F085F901300138FDD193
:1020E000E02252490B681A4080235B012B431A609F
:1020F000802380229B012B4312011A6080223E4BD9
:1021000052004A60E3614B4B5968FF2900D85A607E
:102110008022494B216A1201464D1A60002905D0E0
:10212000606900F05FF901300138FDD1E0224149DA
:102130000B681A4080235B012B431A6080238022A6
:102140009B012B4312011A60802380225B004B60AD
:10215000294BD2022362394B5968914200D25A600E
:102160008022374B616A1201344D1A60002905D074
:10217000606900F037F901300138FDD1E0222F49C4
:102180000B681A4080235B012B431A608023802256
:102190009B012B4312011A608023DB024B60174B1B
:1021A0006362284B5A68FF2A02D8802252005A6084
:1021B0008022254BA1691201224D1A60002905D009
:1021C000606900F00FF901300138FDD1E0221D49AE
:1021D0000B681A4080235B012B431A608023802206
:1021E0009B012B4312011A6080235B004B600E4B56
:1021F000A361E3E65C380020006CDC021BB7000042
:10220000008000403CB0004030B00040002F6859D2
:1022100000800240008C864700C0024030800040B1
:10222000001BB7003C8000404059730754800040B9
:1022300054B000406080004060B000406C800040BE
:102240006CB000404880004048B00040014B800026
:10225000C05870475C380020F8B504000C20170007
:102260001D000E0000F0BEF84101091A8B01591A39
:10227000C90009188901380000F0B4F8069A2B0447
:10228000120313432268002A21DB194AA218514283
:102290004A41802149018C4652420A401549624414
:1022A0000A6015490A60154917008D68AF43FBD1D4
:1022B000C021221D8901114321222660A0600A60ED
:1022C0002268002AFCDAE36008230B60F8BD3F2295
:1022D00021680A40B242D8D1A2681205120D82428A
:1022E000D3D1EE21E268C9020A409A42CDD1EDE78E
:1022F0000040FDBF00E0004000F0004000C0004092
:102300008023024A9B000343D3627047008005404C
:10231000AA23064A1B0113602F230549D360054BEE
:1023200019605368002BFCDA7047C0460040024039
:1023300000B0FA000060024010B5002800D110BDC6
:1023400000F086FAFBE7C04610B5094A030014689E
:1023500084B0002C08D0012200910648524203A903
:10236000A047012004B010BD00F0C4FA0020F9E736
:10237000D43C00203923001001480421014B1847A8
:10238000A0020020A9230010142310B50100188812
:1023900004331B88984710BD162310B50100188818
:1023A00002331B88984710BDF0B5C64600B500291A
:1023B00016D01423040001259846182789004618D2
:1023C0004346216818883B88984701C4431E9841BA
:1023D00040420540A642F3D1280004BC9046F0BD1F
:1023E0000125F9E7114A936F9B0813D210665166D5
:1023F000002905D0FFE7FFE7FFE7516F106F704737
:1024000004B5002801D00020C04300F09DFC00214D
:1024100004BDC046F0B5146E556E576F166FFFF7CA
:10242000E5FF1466556657671667F0BD000000D0DB
:10243000132370B51D78012D15D010DD2748FFF747
:10244000ABFF274C01008022200000F029F9022D6B
:1024500006D02448FFF798FF234B186070BD204C2E
:10246000224AA264F5E72E001D4C204AA3085B42D5
:102470001E401D422FD0330022602020B100611881
:10248000801B0A604A608A60CA600A614A618A6188
:10249000CA610A624A628A62CA620A634A638A63DA
:1024A000CA630A644A648A64CA640A654A658A65BA
:1024B000CA650A664A668A66CA660A674A67400843
:1024C000102803D18A67CA67A264C2E71E339B0043
:1024D000E250A264BDE70023CFE7C04653440000AA
:1024E000DC9E00204C330000F03C0020F124001062
:1024F00007B5604601880A0A0230DF2AFAD1C9B25C
:10250000820804D3028840880004104300E0006879
:10251000014A5050039007BDDC9E002051434343C5
:10252000C9188C46110C83B24B4310B4040C6143A0
:1025300092B280B2504362431C041B0C001910BCC1
:1025400059411304120CC0185141614470470000F6
:102550004840414048400E4B5B6818470C4B1B6895
:1025600018470C4A936F9B0802D2094BDB68184747
:10257000F0B5146E556E576F166FFFF7F6FF054AEC
:102580001466556657671667F0BD014B9B68184780
:10259000DC9F0020000000D0491A002808D108461E
:1025A00070470000C10FC90700D54042002817D06E
:1025B000F44603B40B4B1B68984706BC81409E3819
:1025C0004042803107D20B0607D04900490AC005B6
:1025D0001043084360470130F8E7490A8902F5E7EC
:1025E00070470000F03C0020014B5B6A1847000078
:1025F000DC9F0020132310B512481C78FFF7CCFE97
:102600000100012C0AD003DD80220F4800F048F8B9
:102610000E48FFF7B9FE0E4B186010BD0A4C54224D
:10262000200000F03DF80B4B6365A365E36523666E
:102630006366A366E36623676367A367E367236252
:10264000E361E5E753460000DC9F00204C330000C7
:10265000F03C00205926001007B5604601880A0AA0
:102660000230DF2AFAD1C9B2820804D30288408836
:102670000004104300E00068014A5050039007BD79
:10268000DC9F002001480421014B1847B0020020C4
:10269000A9230010014B1B6818470000B00200205E
:1026A000014B5B6818470000B0020020030010B522
:1026B00008001B681100984710BDC046F8B5474692
:1026C000CE4680B5437C07000D001600002B37D0A6
:1026D00000240020002A1EDD4B1E98461B4B994605
:1026E000002C2BD043461B5D0D3B5A425341DBB2BD
:1026F0002A5D0A2A13D00134A642F1DC864203DDAA
:10270000311A3B6828189847AD19013D2B780D3BCD
:102710005A4253413B740CBC90469946F8BD002B7D
:10272000E9D1A04203DA211A3B68281898474846A5
:1027300002213B68013498472000DDE73B7CD7E766
:102740000368110028009847E5E7C046C02E001036
:10275000F0B557464E464546DE461C00D023E0B550
:102760001B061F68354B83B006000D00180001A939
:1027700091469A4600F0F8FA8046002808D1019B5D
:102780007FB29F4204D0504600F0F6FA01239846EB
:102790006B1C03D1300000F08FFA0500002C2AD109
:1027A000274F284B1C68002C18D04B46002B24D1F7
:1027B000254B994602E0E468002C0FD02368002BDB
:1027C000F9D04B461B68002B01D0A342F3D1200067
:1027D0002A003100B847E468002CEFD14346002BB3
:1027E00028D1681E8541E8B203B03CBC90469946AA
:1027F000A246AB46F0BD154FD3E7134B99460A23CB
:102800009B4602E0E468002CE8D02368002BF9D056
:102810004B461B68002B01D0A342F3D12A003100A4
:102820002000B8475A466B4620001A7101A90122C0
:10283000B847E7E7504600F07FFAD2E708070020E4
:10284000BD260010C8380020CC380020AD2600106E
:10285000F0B54746CE4680B583B06B46DF1CD0232B
:1028600038701B061C68204B060001A9180098460A
:1028700000F07AFA051E22D01C4B1C68002C2AD0CE
:102880001B4B994602E0E468002C10D02368002B13
:10289000F9D04B461B68002B01D0A342F3D1200096
:1028A00001223900FFF70AFFE468002CEED1002D69
:1028B00011D1300003B00CBC90469946F0BD019B8D
:1028C00064B29C420BD0404600F056FA074B0125FB
:1028D0001C68002CD4D1404600F02EFAE9E7034BE7
:1028E0001C68002CCCD1E4E708070020C838002081
:1028F000CC38002070B5040000F0DEF900230100A0
:10290000050001222000FFF723FF084B1C68002C64
:1029100006D06368002B05D09847E468002CF8D1F6
:10292000280070BDE468002CF3D1F9E7C838002016
:102930000A4A1368002B05D10CE01A00DB680C3240
:10294000002B07D09842F8D1002902D1C368136048
:10295000C16070470029FCD01060FAE7C838002039
:1029600010B500F043F810BDF0B50D1E15DD0E4B8F
:102970000D271A680D4B4519D31859424B410C4984
:102980005B005E5E20210478A64207D0936919425D
:10299000FCD101301460A842F5D1F0BD9369194211
:1029A000FCD11760F2E7C046C89E00200080FCBF43
:1029B000D89E002030B50500002912DD002010242B
:1029C000094B013D1A6893691C4208D10130936993
:1029D0001C42FCD113682B548142F4D130BD002835
:1029E000FCD103204042F9E7C89E0020E12110B548
:1029F0000B4B0C481B780C4B49021B780B4B186097
:102A0000FFF7BCF902210020FEF782F90221012024
:102A1000FEF77EF901210648FFF78AFF10BDC04688
:102A2000582F0010004003405C2F0010C89E00206B
:102A3000C0020020F0B5DE46454657464E46E0B59A
:102A4000060083B00D00FEF77BF9304B2F79F118AB
:102A50004B4259412E4B052498468B009B464346DA
:102A60005A469B5820229C460123BB4001902C577C
:102A7000013BD21B002C32DB944243DCA340624674
:102A80001A423FD19946002F18D06B782A781B0242
:102A90001A43AB781B041343EA7812061A43924692
:102AA000002351465A008D5A6A0B00D12D191A196C
:102AB00012329200013395519F42F2D863464A4642
:102AC00059461343424601985350FEF745F92000FA
:102AD00003B03CBC90469946A246AB46F0BD002AE6
:102AE00010DB19006046914014008946014207D16D
:102AF000C9E7180061469040140081460842C2D0E0
:102B0000013AF6D20348FFF725FAC0460000D0AFDD
:102B100044080020042F0010F0B54E464546DE461E
:102B200057468B464900E0B50D0080465D44ED00F8
:102B30004544280009AC2678DC30741EA64189463D
:102B4000016874428C4615491F268A462640564421
:102B5000052B0ED9A02149058A461F27D835514695
:102B600054010C430532053B04603A402E60052BAE
:102B7000F5D859464944C90041449B0652011A43BD
:102B80000B000800DC331A606246D83006601A6019
:102B90003CBC90469946A246AB46F0BD80E00000A2
:102BA000F0B501258D400468AC434D0004606C18FD
:102BB000E40004192600C836002B2AD01F68DC3434
:102BC00037605F6877609F68DB68B76023606B1869
:102BD000DB001D008024D035451964012C4380257D
:102BE0002D0625602560114C0D1D8C40846001244C
:102BF0002700AF403D0008318C401F2106680A4085
:102C00003543056005682C430460C018D830026065
:102C1000F0BD80277F023760F8277F027760C027EA
:102C2000DC343F03B7602360D1E7C04601010101F6
:102C3000F0B5C646040000B5002812D00A4B0025A6
:102C400001269846094F02E00135640809D0264262
:102C5000FAD0290042463800FEF788F801356408AA
:102C6000F5D104BC9046F0BD182F0010CC9E00207A
:102C70000022034B1B68A83318605A607047C04697
:102C8000D8020020094B10B51C68094AA8342068F6
:102C90006168084BFFF742FC01220023801859416C
:102CA000206061604800400810BDC046D802002086
:102CB0002D7F954C2DF4515810B5830727D00378FC
:102CC000002B26D00300032102E01A78002A1CD032
:102CD00001330B42F9D119680F4A104C8A188A4304
:102CE00022420FD1043319680B4A8A188A432242C0
:102CF00008D104331968084A8A188A432242F1D05D
:102D000000E001331A78002AFBD1181A10BD030025
:102D1000E1E70020FAE7C046FFFEFEFE80808080EB
:102D2000F8B5C0460000000001B40248844601BC6A
:102D3000604700BF0501002001B40248844601BC81
:102D4000604700BFE101002001B40248844601BC95
:102D5000604700BF0902002001B40248844601BC5C
:102D6000604700BFC100002001B40248844601BC96
:102D7000604700BF9901002001B40248844601BCAD
:082D8000604700BF5101002073
:102D8800287374696C6C290028666F7277617264A5
:102D980029000000286261636B7761726429000072
:102DA80057533238313220706172616C6C656C0037
:102DB800536E616B6573210052616E646F6D2064A0
:102DC80061746100537061726B6C65730000000080
:102DD80047726579730000005D030010B82D00107C
:102DE80005050010C02D001055050010CC2D001051
:102DF80059040010D82D0010082E001004FF000000
:102E080020600BA101A403A1486172647761726517
:102E180020616C61726D20256420616C726561644B
:102E28007920636C61696D65640000000A2A2A2AAA
:102E38002050414E4943202A2A2A0A000A0000004D
:102E480048617264206173736572740052656C65C1
:102E580061736500626F6F74325F77323571303835
:102E680030000000312E342E300000007069636F8E
:102E78000000000070696F5F7773323831325F701D
:102E88006172616C6C656C004F637420313820325C
:102E98003032320006005250BBFF3CB6742E001090
:102EA80006005250E182887F5C2E001006005250C6
:102EB800D3F07542542E00100D0A000055415254AB
:102EC80020737464696E0000554152542073746411
:102ED8006F7574005541525420737464696E202FC5
:102EE800207374646F7574000600525053B4F4A1D3
:102EF800DC2E001008005250920000004E6F207027
:102F0800726F6772616D2073706163650000000005
:102F1800444D41206368616E6E656C2025642069AC
:102F28007320616C726561647920636C61696D6599
:042F38006400000031
:102F3C00B4020010A80200109C0200109C2E00107D
:102F4C0090020010A82E0010B42E0010F02E0010CD
:042F5C00FC2E001037
:102F600010B5002406E00368BFF35F8F1C6081F397
:102F7000108820BF0268EFF3108172B61368002B2F
:102F8000FCD0BFF35F8F0422835E002BEBDD013B9F
:102F900083800368BFF35F8F00221A6081F310887B
:102FA00010BDC04610B50268EFF3108172B6136809
:102FB000002BFCD0BFF35F8F0422835E0624025FE8
:102FC0009A4208DC0368BFF35F8F00221A6081F326
:102FD0001088002010BD013383800368BFF35F8F2A
:102FE00000221A6081F3108840BF0120F2E7C0463A
:102FF000D02330B500251B0600245D5706E003688A
:10300000BFF35F8F1C6081F3108820BF0268EFF36D
:10301000108172B61368002BFCD0BFF35F8F037969
:103020007F2BECD905710368BFF35F8F00221A6014
:1030300081F3108830BDC046030010B50068EFF37F
:10304000108472B60268002AFCD0BFF35F8F04229E
:103050009A56002A0BDB00290FD000200A601B685B
:10306000BFF35F8F00221A6084F3108810BDD02256
:103070001206126801201A71F1E70020EFE7C0463E
:103080000268EFF3108172B61368002BFCD0BFF317
:103090005F8FFF2303710368BFF35F8F00221A6005
:1030A00081F3108840BF70477047C046F89C0020ED
:1030B000C000000040000000B89D0020000100009A
:1030C000000100000C020020180200201000000087
:1030D00000000000000001000000000000000000EF
:1030E00000000200000000000000000000000300DB
:1030F00000000000000000000000FF0000000000D1
:1031000000B5486801318E460047704609380149CC
:10311000884700BD3510001090020020000000001C
:103120002807002088380020000000000000000070
:10313000983800200000000000000000100000008F
:10314000503300004C330000543300005233000071
:103150004D5300004D430000533400004334000041
:103160006929001000000000B529001000000000CF
:103170000001000000000000E0020020000000004C
:1031800000000000CC050020340600209C06002032
:10319000000000000000000000000000000000002F
:1031A000000000000000000000000000000000001F
:1031B000000000000000000000000000000000000F
:1031C00000000000000000000000000000000000FF
:1031D00000000000000000000000000000000000EF
:1031E00000000000000000000000000000000000DF
:1031F00000000000000000000000000000000000CF
:1032000000000000000000000000000000000000BE
:1032100000000000000000000000000000000000AE
:10322000000000000000000001000000000000009D
:103230000E33CDAB34126DE6ECDE05000B00000062
:10324000000000000000000000000000000000007E
:10325000000000000000000000000000000000006E
:10326000000000000000000000000000000000005E
:10327000000000000000000000000000000000004E
:1035B000852600107923001031240010F525001015
:0435C00039030010BB
:04000005100001E9FD
:00000001FF
