:020000041000EA
:1000000000B5324B212058609868022188439860DF
:10001000D860186158612E4B002199600221596106
:100020000121F02299502B49196001219960352056
:1000300000F044F80222904214D00621196600F024
:1000400034F8196E01211966002018661A6600F04E
:100050002CF8196E196E196E052000F02FF8012189
:100060000842F9D1002199601B49196000215960AB
:100070001A491B48016001219960EB211966A021F2
:10008000196600F012F800219960164914480160C1
:100090000121996001BC002800D000471248134993
:1000A000086003C880F30888084703B5996A0420EC
:1000B0000142FBD001200142F8D103BD02B5186610
:1000C0001866FFF7F2FF186E186E02BD00000240BE
:1000D000000000180000070000035F00212200005C
:1000E000F4000018222000A00001001008ED00E03C
:1000F00000000000000000000000000074B24E7A12
:1001000000200420F7010010C3010010C5010010F9
:10011000C1010010C1010010C1010010C101001097
:10012000C1010010C1010010C1010010C701001081
:10013000C1010010C1010010C9010010CB01001065
:10014000CD010010CD010010CD010010CD01001037
:10015000CD010010CD010010CD010010CD01001027
:10016000CD010010CD010010CD010010CD01001017
:10017000CD010010CD010010CD010010CD01001007
:10018000CD010010CD010010CD010010CD010010F7
:10019000CD010010CD010010CD010010CD010010E7
:1001A000CD010010CD010010CD010010CD010010D7
:1001B000CD010010CD010010CD010010CD010010C7
:1001C00000BE00BE00BE00BE00BE00BE00F04BF888
:1001D000103800BEF2EB8871AC400010D440001023
:1001E0003402001090A31AE700202149086006C8D5
:1001F00081F3088810471F48006800282FD10DA4FC
:100200000ECC002902D000F012F8F9E71A491B4A77
:10021000002000E001C19142FCD1194988471949E9
:1002200088471949884700BEFDE701C901C29A42C3
:10023000FBD37047D4400010C00000202C0B0020DE
:10024000404B00100000042000000420404B001030
:1002500000100420001004200000000070470B482C
:1002600002F02EF90047EFF30580C0B2704700009E
:1002700008ED00E0000000D0300B002044A5002075
:10028000351F0010790600105D2000105756000041
:1002900006005250ABB36053F03F001006005250BE
:1002A000861C030210400010060052505422A29DEA
:1002B0002440001005005250DE65F468404B0010E9
:1002C000F8B5C04610B5064C2378002B07D1054B76
:1002D000002B02D0044800E000BF0123237010BDB2
:1002E000300C002000000000783E0010084B10B5D4
:1002F000002B03D00749084800E000BF0748036807
:10030000002B00D110BD064B002BFBD09847F9E71E
:1003100000000000340C0020783E00102C0B002060
:1003200000000000F0B5DE4657464E464546E0B5B3
:10033000002830D0394B49089B461B689A46384BF9
:100340001B78002B2DD14218534694463F2500249C
:10035000FF2610E00F277F42B84690444746092FFA
:100360004FD91E3A092A50D91C705C709C7001311B
:1003700003338C450AD02A000A40092AEAD8013101
:100380001C705E709C7003338C45F4D143001818C8
:1003900050445B4618603CBC90469946A246AB462A
:1003A000F0BDFF22534646183F250024914608E041
:1003B0004A461C705A709C70DC7001310433B142A3
:1003C00013D02A000A40092AF2D90F277F42B846E3
:1003D00090444746092F0BD84A4601311C705C7087
:1003E0009A70DC700433B142EBD180005044D0E706
:1003F0001E3A092A0DD84A465C701A709C70DC704F
:10040000DBE71C705C709E70B1E71E705C709C70C6
:10041000ADE71C705C709C70DC70CEE7C03C0020C7
:100420000FA30020F8B504000800642102F07AF858
:10043000002C1FD01F4A13689C461F4B1B78002BB3
:1004400019D1604666003619861902E003308642EB
:100450000FD00B025B181B025B181C0A03700131E2
:100460001B0C447083706429F0D103300021864254
:10047000EFD11660F8BD65460026002703E001367F
:100480000435A64211D00B025B181B025B18180A38
:100490002B7001311B0C6870AB70EF706429EED1CA
:1004A000013600210435A642EDD1B600664416603F
:1004B000E0E7C046C03C00200FA30020002210B59A
:1004C000034B04481A6003F0A7FC0020002110BD74
:1004D00014A3002028410020F0B5C646060000B550
:1004E0004B071AD1002818D00023002498460C4D41
:1004F0000C4F02F00BFF2B68020A5A70DA1C2A60BC
:100500003A781870000C9870002A03D01A1D2A60DF
:100510004246DA700134A642EBD104BC9046F0BDED
:10052000C03C00200FA30020F8B5CE464746060089
:1005300080B54B0721D100281FD0124B00249846CC
:1005400000230F279946104D02F0E0FE3840434249
:1005500058412B684042020A5A70DA1C2A6042460F
:1005600012781870000C9870002A03D01A1D2A60A7
:100570004A46DA700134A642E6D10CBC9046994650
:10058000F8BDC0460FA30020C03C0020A0220121DE
:1005900030B5184BD205D05885B001421DD0164C4D
:1005A000D1502568002D1FD100F006FF050001F095
:1005B0006DF8C8220023520012184B4199420ED9FF
:1005C00001225242D31701210291002101910B49CE
:1005D0002800009100F0F4FE206005B030BD994283
:1005E000F1D19042ECD8EEE700F0E6FE290000F0F1
:1005F000B7FFD9E70C04000014A30020BD040010CD
:1006000070B5050003200C0002F09CFB134B002189
:10061000EB185A1E9341DB00E318114ADB03134326
:10062000A02208200434A400D2052C1911605460C3
:100630000124906013610B4B0B4A19605A600B4AFE
:100640009C600B491A61033000F04EFB094B0121FD
:100650001C600B2000F02EFB70BDC0460000E0AF18
:1006600019082000400000503C00005019881F006D
:100670008D05001004240050F0B5DE464E46454678
:100680005746E0B593B002F0F9F9C84802F0D2F845
:10069000C749C84802F05EFA06210500022000F0B2
:1006A00097FA0621032000F093FA01230222009317
:1006B00000210133BF4802F0B5FA102200210EA834
:1006C00002F04EF880235B020E93F8235B020F9337
:1006D000C02310221B030EA90AA8109302F046F8AB
:1006E000EB1CEA011B0313430AA910220EA80B936B
:1006F00002F03CF8B04B05201193B04B109301F081
:1007000031FE01F0C1FFAE4901F0A3FF061C01F06C
:10071000E3FF84B20023002C0ED0200001F0B4FFD0
:10072000011C301C01F08FFF8721C90501F0A5FFD6
:1007300001F0D2FFC3B21B0224041C430E949D4C53
:100740000EAB2A000021200002F0B4FA0122236837
:100750000121134323609B4800F04AFC0021200044
:10076000FFF74EFF00230793974B9A4601239B46C2
:1007700002F0CCFD0324044002F0C8FD430000D485
:1007800006E202F0C3FD5B46034200D0F6E18F4B68
:10079000E4001B19586802F04DF801238C480393BC
:1007A00002F048F8894B00271B590993079B0293D5
:1007B000FA239B000593002304930693854B029D27
:1007C0001B6829000893089A834B099C1A60002231
:1007D000824B40201A70A047814B29001B684020A3
:1007E0000893089A7C4B1A605A467C4B1A70A047B3
:1007F000C0227C4D92012B0094466344994602230B
:100800002E000024984630220021300001F0A8FF7D
:1008100053461A6853689C4270D21368195D9368F6
:100820004B431B0A7B431A0A68D05946114203D036
:100830005946F26A0A43F2625A0A5FD05946114297
:1008400003D05946B26A0A43B2629A0A56D0594650
:10085000114203D05946726A0A437262DA0A4DD0D5
:100860005946114203D05946326A0A4332621A0B82
:1008700044D05946114203D05946F2690A43F26105
:100880005A0B3BD05946114203D05946B2690A432C
:10089000B2619A0B32D05946114203D0594672695F
:1008A0000A437261DA0B29D05946114203D05946E6
:1008B00032690A4332611A0C20D05946114203D0E2
:1008C0005946F2680A43F2605A0C17D05946114251
:1008D00003D05946B2680A43B2609A0C0ED059460A
:1008E000114203D0594672680A437260DB0C05D08E
:1008F0005A461A4202D033681343336053465A684B
:100900005368A34200D893E01368195D93684B4382
:100910001B0A7B431A0A00D18AE05946114203D0D0
:100920004146F26A0A43F2625A0A00D180E059460F
:10093000114203D04146B26A0A43B2629A0A00D118
:1009400076E05946114203D04146726A0A43726208
:10095000DA0A6DD05946114203D04146326A0A4341
:1009600032621A0B64D05946114203D04146F269F3
:100970000A43F2615A0B5BD05946114203D04146FB
:10098000B2690A43B2619A0B52D05946114203D060
:10099000414672690A437261DA0B49D059461142E5
:1009A00022D0414632690A4332611DE0983E001070
:1009B000F03E0010000020504200200800000E40D1
:1009C0000024F44A2841002024020020A83E001000
:1009D000803E00100C020020C03C00200FA300202D
:1009E00018020020980C00201A0C21D05946114200
:1009F00003D04146F2680A43F2605A0C18D05946B7
:100A0000114203D04146B2680A43B2609A0C0FD03B
:100A10005946114203D0414672680A437260DB0CAA
:100A200006D05A461A4203D0424633681343336015
:100A300030360134B14500D0E5E6069B049A1C002F
:100A40005B4B9446984613005A46534064449C4678
:100A50005A00069262440493130324032033A044F3
:100A60001C00534B40469C466444BC46E368EA6A1B
:100A7000190051401A401300C162A168AF6A4F408B
:100A80007B408362AB6A3A400B4013431F006268AD
:100A9000696A51404F400B40696A47620A401A43F5
:100AA00017002368296A303459400A404F40296AA8
:100AB00007620B401343EA69110059401340C161BA
:100AC0001900AA6951401340816119006A691340F5
:100AD0005140416119002A6951401A4001611100D9
:100AE000EB6859401A40C1601100AB681A40594088
:100AF000816011006B68594013402A6830355340BB
:100B0000416003603030B542B0D12A48674603F0F7
:100B10009BF98021C9008C464446274B63441A0048
:100B2000254B10C330349342FBD180230021224A4D
:100B3000DB00D150214B0137DA63039A029B9446C4
:100B40006344029380239B009F4215D0059B013B89
:100B50000593002B00D031E6079B03991A008C46C1
:100B6000174B62444B439B18C0220021D20110480E
:100B7000079301F0F5FDFBE50027E7E7114BE400E3
:100B80001B19586801F056FE00230F48039307E62F
:100B900002F0BCFB5B460342F0D10A4BE4001B1998
:100BA000586801F047FE01235B4203930748F7E5CD
:100BB00038410020284100200C3D0020400000501A
:100BC000E7030000A83E0010783E00108C3E0010A5
:100BD000094A830094464022634410B51C68C00053
:100BE0006240C02414408022520113431C60034B16
:100BF0009C466044416010BD04C00140004001407B
:100C0000EFF3108072B6034A1368002BFCD0BFF3D9
:100C10005F8F70472C0100D0BFF35F8F0022024B23
:100C20001A6080F3108870472C0100D0F8B5EFF3FC
:100C3000108772B60D4E3368002BFCD0BFF35F8F68
:100C40000725CB08C01801230D40AB401D000478D8
:100C5000254007D123430370BFF35F8F356087F3CF
:100C60001088F8BD100001F0FBF9C0462C0100D03F
:100C7000024B18688007C00F7047C04600C006408E
:100C80000021044B044ABFF35F8F02C39342FAD1A1
:100C90007047C046000100D0800100D0044A10789F
:100CA000431CDBB2172B00D9102313707047C046CA
:100CB0002C02002001238340002902D1034A136043
:100CC0007047034A1360034A1360F9E780E100E0CC
:100CD00080E200E000E100E0024B10309B68800001
:100CE000C058704700ED00E070B50D00EFF31086BE
:100CF00072B60F4A1368002BFCD0BFF35F8F0D4B09
:100D000010309B6884001B590B4A934203D09D42CC
:100D100001D001F0BDF9074B9B681D51BFF35F8FF8
:100D2000BFF35F8F0022024B1A6086F3108870BDFC
:100D3000240100D000ED00E0CD010010F0B5DE464A
:100D400057464E464546E0B50C0083B0EFF3108B96
:100D500072B65B4A1368002BFCD0BFF35F8F102282
:100D6000904680444246574B97009B68DD59564B4E
:100D700099469D4206D0A54200D177E0534EAB1B69
:100D80002F2B12D94F4B9B68DD51BFF35F8FBFF301
:100D90005F8F00224A4B1A608BF3108803B03CBC73
:100DA00090469946A246AB46F0BD012383409A4641
:100DB0005246474B1B681A4000925246454B1A60F8
:100DC000BFF35F8FFFF74FFA0190002843D1012353
:100DD0002A009A4393689C424DD00621515600291F
:100DE00005DA31E0062159561A0000292CDB4B00A8
:100DF0005B189B00F31899688C42F3D10621595671
:100E000000293BDB4A005018800034188046A06857
:100E10009860E079D871062020569871A0797F28D3
:100E200026D8A488F01A6405241544440019E02447
:100E30000005400D2402204398805218264B920052
:100E4000B6181A781970B271009B002B08D152465F
:100E5000204B1A6096E78045B9D001F019F9B6E742
:100E600052461E4B1A601A4B1A608BE71D0089E729
:100E7000BD200002E0E713000022BFE7019900292E
:100E80000FD1002A1AD0FF31917115499180124972
:100E90000A789A71134A9B1B5B415A43120D0A70E0
:100EA000D2E7114A1149D21A083A5002400D0143C3
:100EB00099800F4952080A43DA80C5E74D46E6E7B4
:100EC000240100D000ED00E0CD0100103002002030
:100ED00000E100E080E100E010A3002080E200E0FB
:100EE00000BDFFFFAAAA00006A02002000F0FFFF79
:100EF00000F8FFFFF8B5012504000543FFF7B3F93B
:100F0000EFF3108672B6214A1368002BFCD0BFF3B2
:100F10005F8F1F4A1F4B2100891A49414B431B0D0C
:100F20001D4980008F685BB23F58BD4226D0062124
:100F30005156994226D012215156994224D01E2151
:100F40005156994210D02A215156032099420CD073
:100F5000124A11781370A171BFF35F8F00220B4BFF
:100F60001A6086F31088F8BD022041000918890034
:100F70005218FF2191710A499180E9E78A6809496D
:100F80001150E5E70020F0E70120EEE7240100D052
:100F900030020020AAAA000000ED00E010A300200B
:100FA00000BDFFFFCD010010084B094A1360094A3C
:100FB0001360094A1360094A1360094A1360094A19
:100FC0001360094A1360094A13607047808080806B
:100FD00000E400E004E400E008E400E00CE400E0E9
:100FE00010E400E014E400E018E400E01CE400E099
:100FF00070B504000E001500FFF750FE0100200040
:1010000000F006F8A680E580BFF35F8F70BDC04694
:10101000024B9C46614489000160704740000034E7
:1010200083680B4810B5844661446244090112018B
:101030009A18591854684B6801209C4201D802D074
:101040000020C0B210BD12680B689A42F9D8F7E7C9
:10105000FFFFFF0FF8B54E464546DE465746E0B562
:101060001F000CAB1D780DAB1B7881469B460368B7
:1010700016009846002D08D1987B002841D13CBC31
:1010800090469946A246AB46F8BD28006C0064190C
:10109000033C384B00229C464B469B6860449C4670
:1010A00000010A9B604483600B9B06604760C3603D
:1010B00043461B681B199A705A701A7043465B7B33
:1010C0009A46002B3BD043462A00986851465B68FD
:1010D000984743461A68002824D053465B0053447F
:1010E000033BD31814195246A2701A78002A00D074
:1010F00062701D705246434628005A73AA45BED1FD
:101100001FE0414644001B682418033C1B195A7811
:101110008A73002A00D1CA73002205009A705A709F
:101120001A70B6E753465B005344033BD3181419B7
:101130009D702278002A00D05A705346237043468F
:101140005D734B463200187D3B0000F01BFB041E14
:1011500007D05B46002B04D14B462900186800F0ED
:101160002FFD0E9B002B02D01C70280087E7280063
:1011700085E7C046FFFFFF0F744B8200F0B5D458DF
:101180000023DE4657464E4645469B46E0B58DB0A9
:101190000B9000F07BFA6268EFF3108572B613686B
:1011A000002BFCD0BFF35F8F23689C465B7B994686
:1011B000002B00D181E0A268654B90464B441B0197
:1011C000984443461E685F6832003B00121A8B4108
:1011D000002B00DC84E03B0032000B9800F0D2FAD8
:1011E0000023002208920993002300279A4663688F
:1011F000BFF35F8F5A461A6085F310885346002B61
:1012000064D00A9B390018024B461843D0476268E5
:1012100006900791EFF3108872B65646454613685C
:10122000002BFCD0B246A846BFF35F8F0699079A01
:10123000002A25DA2369002B28D0089D099E6D1A03
:1012400096412A003300089D099E9E4200D971E014
:1012500000D173E05946049101210391494602915E
:101260005146019700912000FFF7F4FE5B46236191
:101270006368BFF35F8F5A461A6088F3108888E767
:101280001300194302D02369002B46D12368DA7B6F
:10129000002A07D051008A1819688C4649466244D2
:1012A000033A51704A46DA73E2684B469446013B72
:1012B00063441A7801321A70D8E70023002208929A
:1012C0000993002300279A46002090E7002800D0C9
:1012D0005FE70DB03CBC90469946A246AB46F0BDD8
:1012E000002B02D1002A00D075E70021604600F0F3
:1012F000BBFB43461A685B680892099343469B68A8
:101300009A464346DF68E3684B44013B1B780A93E7
:101310001B0218432061002069E700F0B7F9069A24
:10132000079B12184B41994204D800D092E7904293
:1013300000D88FE701225242D3178BE7954200D89D
:1013400088E701225242D31784E7C04618410020A3
:10135000FFFFFF0F10B5124C6368002B04D00A2169
:101360001048FFF755FE10BD23000F4A10212068DA
:1013700000F05CFB032000F07DF9032000F070FA20
:101380000A49032000F0B8F9FFF788FC084B9C4697
:10139000032360442375074B80006060DC60DEE758
:1013A0007802002034410020211000107911001033
:1013B00040000034184100200048704778020020A7
:1013C000F0B55746DE4645464E46E0B585B000923C
:1013D000019310AB1B7807009B4600239A46984662
:1013E0007A68EFF3108972B61368002BFCD0BFF354
:1013F0005F8F3E68B47B002C00D173E065002D192F
:101400003368033D5B195A78B273002A00D1F27336
:1014100042469A705A701A70BA68504B94460099B6
:10142000019AE3181B01634419605A600E9A9A608E
:101430000F9ADA60424633685B199A705A701A70D4
:10144000737B0393002B00D176E0190073682200B0
:10145000B0689C46E047326800285ED00398551972
:10146000844643006344033BD318A8701A78002ACB
:1014700000D06FE01C70707384425ED0FB681B1953
:10148000013B18787B68BFF35F8F42461A6089F38F
:1014900010885346002B08D10002204305B03CBC05
:1014A00090469946A246AB46F0BD5B46002B53D012
:1014B0000E9B0F9900209847030004000D000B437A
:1014C0004AD0002917DA0098019902000B00121B7C
:1014D000AB4199421AD801D1904217D8009201939A
:1014E000DA467DE77B68BFF35F8F1C6089F3108865
:1014F00001204042D2E700F0C9F824184D41009481
:101500000195A94202D8EBD1A042E9D901235B425F
:10151000DC17DA460093019462E7039955198C466B
:101520004B006344033BD3189C702A78002A00D0F8
:101530005A706B461B7B2B707473387D009A019B2D
:1015400000F020F98246002898D02100386800F089
:1015500037FB93E76A708DE700209FE7FFFFFF0FDF
:1015600070B542680400EFF3108572B61368002B63
:10157000FCD0BFF35F8F2068CEB2437BB3420AD06A
:10158000FF230B405A00D318026894466344033B80
:101590009B78002B13D0FF230A0A0B40E168D2B2DC
:1015A0008C466344013B197891420ED00020636859
:1015B000BFF35F8F00221A6085F3108870BD226927
:1015C0009142F3D123610020F1E7310000F0F8FAF5
:1015D000EDE7C046F8B5CE46474680B5EFF3058344
:1015E0003F22134018001038EFF3108C72B61B49DD
:1015F0000A68002AFCD0BFF35F8F01210F008740EB
:10160000174D184A6F63147891462200C2409046E5
:101610004646002231420BD0696A134D884681004C
:101620004D59A84512D3114BBC43CA584B461C70A8
:10163000BFF35F8F0021094B19608CF31088002ADB
:1016400000D090470CBC90469946F8BD08499B00D5
:101650008846434419681960EAE7C046280100D06B
:101660000040054011A30020F8A20020880C0020B3
:10167000D03F054010B50100024A0348FFF7D6FAF3
:1016800010BDC046083F00100EA30020044A516A56
:1016900000E01900906A536A9942FAD17047C04637
:1016A00000400540134A30B5546A00E01C00956ABA
:1016B000536AA342FAD12A002300801859418C4270
:1016C00011D80ED00C000B4A536AA342FCD307D1A9
:1016D000084A02E0516A994202D1916A8142F9D3E3
:1016E00030BD8542EED9012401204042C117644239
:1016F000E9E7C0460040054070B504000D00EFF377
:10170000108672B61A4A1368002BFCD0BFF35F8FA5
:10171000002D1BD02000FFF7DFFA164988420AD0BF
:101720002000FFF7E1FA01212000FFF7C3FA0123AF
:10173000A340114A1360114BA400E550BFF35F8F23
:1017400000220B4B1A6086F3108870BD0B4BA20071
:10175000D5500122A2400A4920000B7893430B7018
:101760000449FFF7EBFA00212000FFF7A3FAE5E7B1
:10177000280100D0D515001038600540880C0020E5
:1017800011A30020F0B5D6464F4646462F4CC0B5B3
:10179000656A00E00D00A66A616AA942FAD1AB420F
:1017A00049D9EFF3108972B6294C21680029FCD081
:1017B000BFF35F8F0126274986408C460978264D66
:1017C0000F0037438846F9B28A46614654460C708A
:1017D0001E49041DA4004E636250840063510D6ACB
:1017E000002435421AD04D6A00E025008F6A4C6A09
:1017F000AC42FAD1AB4224D801D1BA4221D8D0456B
:1018000021D0124B154A1E625E631F2318401E3BF7
:10181000834013606346424601241A70BFF35F8F12
:1018200000220B4B1A6089F3108820001CBC9046E4
:101830009946A246F0BDAB4201D1B242B1D80124D3
:10184000F3E70024EAE70124E8E7C046004005404A
:10185000280100D011A30020F8A2002080E200E0BF
:1018600010B5EFF3108472B60A490B68002BFCD058
:10187000BFF35F8F01238340074A08481362027851
:101880009A430270BFF35F8F00230B6084F31088CC
:1018900010BDC046280100D00040054011A3002023
:1018A000F8B54E464546DE465746E0B54C0064184E
:1018B0000368033C1A190D00517806008946002977
:1018C00006D128003CBC90469946A246AB46F8BDDE
:1018D0004F004F44033FD81941788846002141709A
:1018E0005170002D12D073684A462900B06898479D
:1018F0003368002873D0DF191A19BD7011780029D8
:1019000000D0797049462700117000E04D464246EC
:10191000002AD6D054004444033C1A195178894611
:10192000002911D1736842462900B068984733688E
:10193000002849D01C19DF19A5703B78002B00D076
:10194000637043463B70BCE74900494403398A460B
:10195000534459788B4600215970517073684A4638
:101960004146B06898473368002843D152461C1955
:101970009A184B46A3701378002B00D0637043462F
:101980005446C84613705B46002BCBD059463000F6
:10199000FFF786FF81460028C4D002004146B068A8
:1019A00073689847326800282FD04B465B004B4441
:1019B000033B1119D31842469A700A78002A00D0C6
:1019C0005A704B460B70ADE71C19DF194346BB70CC
:1019D0002378002B00D07B702570454671E749467F
:1019E0001C19DA19A1701178002900D061701570E6
:1019F0004D468CE741461A195344997011780029D5
:101A000000D059704B461370BDE74B465B004B440A
:101A1000033BD11814194A46A2700A78002A00D054
:101A2000627042461C000A70C8467BE710B58360AE
:101A30000023CCB243730133047342608373C473D5
:101A40000068012C07D90123421C0133DBB213705B
:101A500003329C42F9D8FF2319404B005918002348
:101A600040180338437010BDF0B54E465746454602
:101A7000DE46E0B5477B03687C00E419033C1A1995
:101A8000167883B005008946002E1ED1002911D09A
:101A9000C07B002869D041000918591803394F70DC
:101AA000EF73002E06D07100891903398846002192
:101AB000434499700023380053706E7303B03CBCEC
:101AC00090469946A246AB46F0BD7100891903398C
:101AD0008846591848788246002807D14946002987
:101AE000E5D0E87B0028D6D1EF73DCE74200524412
:101AF000033A9446019263445A78934600225A70FE
:101B00004A706B6852463100A86898472B680028D5
:101B100032D0414601985A1819188E701078002852
:101B200025D1514611705A46002A23D05946280023
:101B3000FFF7B6FE824600281BD002006B6831001A
:101B4000A86898472B68002825D042469918524625
:101B500052005244033A9A1896700878002800D030
:101B6000507052460A701A19B8E7EF73A2E748702E
:101B7000D7E72B681A19B1E741465046019A591820
:101B80009A1888701078002800D048701670019A52
:101B900056469046C7E752465100514403395A18F9
:101BA000404693465246181882705A461278002AC8
:101BB00000D042705A46884616701A1956468DE76C
:101BC000F0B54546DE4657464E46E0B50C0083B0BC
:101BD0000500002200293DD0477B0168BC426BD044
:101BE00066003619033E88198378002B32D05A00DC
:101BF000D318033BCB181A78944202D143E0002A51
:101C000008D053009B18033BCB185A789442F6D166
:101C100042785A7000238370437003789846002BF3
:101C200025D1EA7B002A1DD053009B18CB18033B1B
:101C30005C704346EC73002B00D171E05C00002324
:101C40004444033C09198B704370002F1ED1434656
:101C500001226B73100003B03CBC90469946A2462B
:101C6000AB46F0BDB846EC7300234370EFE71900B4
:101C70002800FFF715FE2968EA7B80466F7B8819EC
:101C8000002AD6D0D0E742781A70C3E7424639001E
:101C9000A8686B6898472A68002824D07B00DB1965
:101CA0001419033BD318A7701A78002A00D0627069
:101CB0004246B8461A70CAE77E00F619033E8B19F1
:101CC0001878804600281BD1E87B002804D0420009
:101CD00012188A18033A5470EC7300225A70434663
:101CE00001326B73B6E77B00DB19033B1419D31881
:101CF00042469A702278002A00D05A702770A6E7D0
:101D000044004444E01E019008184478A246002C88
:101D100008D1EC7B002C76D1EF7300228270DCE7D7
:101D2000B846A1E763005344033B994649444B78C6
:101D30004A7042709B4622006B684146A8689847EB
:101D40002B6800284BD049464046019C59181A1967
:101D500088701078002850D15146A14611705A461B
:101D6000002A20D059462800FFF79AFD041E19D0FA
:101D700002004146A8686B68984700281ED04A4672
:101D800041462B68981862001219033A9A1891700C
:101D90000178002900D051700470E97B002905D139
:101DA0009B19B9E72B684A469818F6E74A0052187B
:101DB0009A18033A57709B19EF73AEE74B462968A0
:101DC000600000190338CB1808189C700278002AAC
:101DD00000D05A704346A04603708B1999E74A46D3
:101DE0009818019A9C185246A2700278002A00D0D6
:101DF00062704246D0460270B1E748705146117099
:101E0000019A9146ABE7032262438A18033A57705E
:101E100082E7C04610B50400FEF740FF0100200035
:101E2000FFF7F6F8FF232371BFF35F8F10BDC046A5
:101E300010B50400FEF732FF01002000FFF7E8F8BC
:101E4000FF23237100236371BFF35F8F10BDC04672
:101E5000F8B5040006200D0000F084FA030000200D
:101E6000002B49D0294B80229C424DD0D203284BD5
:101E700028491A60284B1A6010008B689843FBD1E0
:101E8000264B8021E3185A425341254A5B00490002
:101E90000620995200F066FA2900C00000F042FBCB
:101EA000C3092AD01F4A93422AD87F22104001300A
:101EB00040089F011A0003003F1826008025626237
:101EC000A36200232C36AD0135432B60062000F0C1
:101ED00049FA3900800000F025FB6023E26A534094
:101EE0006E221A4080235B0133431A600E4B23633A
:101EF00010232B600D3BA364F8BD40270122DCE7D3
:101F00000A4F00230A4AD8E71204B0E700800340D2
:101F100000E0004000C0004000F000400080FCBF36
:101F200018A30020FEFF000001030000C0FF3F00D7
:101F3000FFFF00002D4A2E4B70B51A602D4A2E4B24
:101F40002E491A6010008B689843FBD12C4E2D4B04
:101F50009E420AD2F5430024ED18AD080135A300D6
:101F6000F35801349847AC42F9D100F097F8264A6B
:101F7000214B1A60214A9368DB018033FBD1402258
:101F8000224B234C234D9A675A671A67DA66AC4294
:101F900008D223682000002B22D00834FFF748FF26
:101FA000AC42F6D31C4D1D4CC022A168280000F0A5
:101FB000DDFBA560FEF764FEFEF7F6FFFFF7CAF94A
:101FC000174E184B9E420AD2F5430024ED18AD0877
:101FD0000135A300F35801349847A542F9D170BDEB
:101FE0000834FFF717FFAC42D3D3DBE7BFCDFBFECE
:101FF00000E00040FE7F3C0000F0004000C00040D8
:10200000180B0020280B0020FFFFFF0100F001400B
:10201000100B0020180B00200000002000ED00E055
:10202000280B00202C0B0020094A1368002B06D037
:1020300008491818884208D8106018007047064BE5
:102040000449181813608842F6D901204042F5E788
:10205000104100200000042044A5002000BEFDE740
:102060000FB400B5084883B000F0E4FB049B002BDC
:1020700007D005A91800019100F002FA034800F00A
:10208000D9FB00BEFDE7C046383F0010483F0010B6
:1020900010B50148FFF7E4FF2C3F001030B50C20CD
:1020A00083B000F0B3F9FEF7E3FD00280ED0964BA5
:1020B000964A1A605A609A60DA601A615A619A61A7
:1020C000DA611A62924A5A6203B030BD914CA0673D
:1020D00000F0A4F90122904B1A60636C012BFCD133
:1020E00003228E4B1A608B4A936B012BFCD1013378
:1020F00000938B4A043301218A4800F039F9052303
:10210000894A00930121894800F032F9884B5A68C6
:10211000FF2A02D8802252005A6080227A4C7F4BDC
:1021200021691201824D1A60002900D0E5E0E0210A
:102130007F4B02201A681140802252012A4311600D
:102140001968484003210140116004219A68114236
:10215000FCD08022802192012A4309011160802253
:1021600052005A60734B2361734B5968FF2900D8A2
:10217000C1E00322684B70481A60012103009A688D
:102180001142FCD0E0251A6815408022520102431A
:1021900015601B684B400321194011600221664AFB
:1021A00093681942FCD0802380219B0103430901DD
:1021B00019608021614B490051606361604B5A682E
:1021C000FF2A00D8596080225E4BE16912015C4D04
:1021D0001A60002905D0606900F0A4F901300138C7
:1021E000FDD1E02256490B681A4080235B012B4346
:1021F0001A60802380229B012B4312011A608022E7
:10220000424B52004A60E3614F4B5968FF2900D8A6
:102210005A6080224D4B216A12014B4D1A600029F1
:1022200005D0606900F07EF901300138FDD1E0226F
:1022300045490B681A4080235B012B431A608023B9
:1022400080229B012B4312011A6080235B004B60AC
:102250002E4B3F4A23623F4B5968914201D80132CD
:102260005A6080223C4B616A12013A4D1A60002983
:1022700005D0606900F056F901300138FDD1E02247
:1022800034490B681A4080235B012B431A6080237A
:1022900080229B012B4312011A608023DB024B60DA
:1022A0001B4B63622D4B5A68FF2A02D880225200D2
:1022B0005A6080222A4BA1691201284D1A60002918
:1022C00005D0606900F02EF901300138FDD1E0221F
:1022D00022490B681A4080235B012B431A6080233C
:1022E00080229B012B4312011A6080235B004B600C
:1022F000124BA361E8E65A603BE7606900F012F90F
:1023000001300138FDD112E7983C0020006CDC025E
:102310001BB70000008000403CB0004030B00040DF
:10232000002F685900800240008C864700C00240A0
:1023300030800040001BB7003C80004040597307CC
:102340005480004054B000406080004060B00040C5
:10235000FFFF03006C8000406CB0004048800040EC
:1023600048B00040014B8000C0587047983C0020A6
:10237000F8B504000C2017001D000E0000F0D2F884
:102380001D494143380000F0CDF8069A2B04120392
:1023900013432268002A1CDB184A8021944229D06A
:1023A0004901174A174D1160174A11600F00AA68BA
:1023B0009743FBD1C021221D8901114321222660B0
:1023C000A0600A602268002AFCDAE36008230B6040
:1023D000F8BD3F2221680A409642DDD1A26812056D
:1023E000120D9042D8D1EE21E268C9020A40934210
:1023F000D2D1EDE78901D4E740420F0000C002408E
:1024000000E0004000C0004000F0004080239B003E
:102410001843014BD862704700800540AA23064A42
:102420001B0113602133FF33D3600449044B19604F
:102430005368002BFCDA70470040024000B0FA00FD
:102440000060024010B5002800D110BD0B4B1C6885
:10245000A2689368013B9360002B04DB1368591C4E
:1024600011601870F1E791698B4201DB0A28F5D100
:102470000100200000F0A8FFE7E7C046D4020020DA
:1024800010B5094A84B01468002C09D001220091CB
:102490000300524203A90548A047012004B010BD23
:1024A00000F0C8F90020F9E714410020452400108D
:1024B00001480421014B1847A0020020E12400102C
:1024C000142310B50100188804331B88984710BDE9
:1024D000162310B50100188802331B88984710BDD9
:1024E000F8B54746CE4680B50F1E19D0142399463D
:1024F000043304000025012698464B4618884346BD
:1025000021681B88984701C4431E98410135404209
:102510000640AF42F1D130000CBC90469946F8BD60
:102520000126F8E7114A936F9B0813D21066516693
:10253000002905D0FFE7FFE7FFE7516F106F7047F5
:1025400004B5002801D00020C04301F075FC002133
:1025500004BDC046F0B5146E556E576F166FFFF789
:10256000E5FF1466556657671667F0BD000000D09A
:1025700010B50148FFF774FD4C3F0010132370B5F0
:102580001C78012C15D010DD0F48FFF7A1FF0F4D6F
:1025900001008022280000F0E9F8022C06D00C4847
:1025A000FFF78EFF0B4B186070BD084D0A4BAB64F4
:1025B000F5E7064D09492A002B00803202C39A42F2
:1025C000FCD1054BAB64EAE7534400001CA3002098
:1025D0004C33000030410020E1250010712500102F
:1025E00007B5604601880A0A0230DF2AFAD1C9B26B
:1025F000820804D3028840880004104300E0006889
:10260000014A5050039007BD1CA30020514343438F
:10261000C9188C46110C83B24B4310B4040C6143AF
:1026200092B280B2504362431C041B0C001910BCD0
:1026300059411304120CC018514161447047000005
:102640004840414048400E4B5B6818470C4B1B68A4
:1026500018470C4A936F9B0802D2094BDB68184756
:10266000F0B5146E556E576F166FFFF7F6FF054AFB
:102670001466556657671667F0BD014B9B6818478F
:102680001CA40020000000D0491A002808D10846E8
:1026900070470000C10FC90700D54042002817D07D
:1026A000F44603B40B4B1B68984706BC81409E3828
:1026B0004042803107D20B0607D04900490AC005C5
:1026C0001043084360470130F8E7490A8902F5E7FB
:1026D0007047000030410020014B5B6A1847000042
:1026E0001CA4002010B50148FFF7BAFC0C400010F4
:1026F000132310B51C781148FFF7EAFE012C0BD00C
:1027000004DD010080220E4800F030F80D48FFF78C
:10271000D7FE0D4B186010BD094C5422010020005B
:1027200000F024F82300094A80332168002900D1F1
:10273000226004349C42F8D1E8E7C04653460000CA
:102740001CA400204C33000030410020E52600107E
:1027500001480421014B1847B0020020E124001079
:10276000014B1B6818470000B0020020014B5B685A
:1027700018470000B0020020F8B54746CE4680B5A5
:10278000437C80460E001700002B48D0002A2EDD27
:10279000274B012500240020994604E02B0001343A
:1027A00001359F4219DD002C3ED0631EF35C0D3BCA
:1027B00059425941CBB2325D0A2AEFD1002BEDD1FB
:1027C000844226DC434648461B6802219847013470
:1027D00028002B0001359F42E5DCB8420BDBF619DF
:1027E000013E33780D3B59425941434619740CBCA4
:1027F00090469946F8BD4346391A3018F6191B68B9
:10280000013E984733780D3B59425941434619746C
:10281000EDE74346211A1B6830189847D2E7036852
:10282000110030009847E2E743461B7CC3E7C046EF
:1028300030400010F0B5DE4657464E464546E0B5FE
:1028400083B0060000F08EFDD0231B061C682D4BC4
:10285000070001A918009B4601F0FEFA80460028F7
:1028600008D1019B64B29C4204D0584601F0FCFAA6
:1028700001239846B9467B1C3ED0234B1C689A46E0
:10288000002C32D0214D02E0E468002C17D02368E0
:10289000002BF9D02B68002B01D09C42F4D12000F2
:1028A0004A463100FFF768FF6B460A2220001A7182
:1028B00001A90122FFF760FFE468002CE7D143463D
:1028C000002B15D153461C68002C06D06368002BE2
:1028D00000D09847E468002CF8D1380003B03CBC25
:1028E00090469946A246AB46F0BD4346002BF4D035
:1028F000584601F099FAE5E7300000F033FD8146D3
:10290000BBE7C046100B0020043D0020083D00201E
:10291000F0B54646DE465746C0B5904682B00E003A
:1029200000282CD11A4B1B4D1A685B681A4F9A4627
:102930001A4B01929B465B461C68002C05D115E0A2
:10294000A34205D0E468002C10D02B68002BF7D1EF
:10295000A368002BF6D04146300098470028F1DDEF
:1029600002B01CBC90469A46A346F0BD7B6A9A45CD
:1029700008D8BA6A01998A4201D29A4502D0012048
:102980004042EDE701200021FEF78CFED3E7C04670
:10299000003F0010083D002000400540043D00209D
:1029A000F0B54646D6464F46C0B5013882B0884697
:1029B0001600012840D8D0231B061C68204B01A913
:1029C00018009A4601F048FA071E07D1019B64B22D
:1029D0009C4203D0504601F047FA0137B146731CC0
:1029E00025D0184B1C68002C14D0174D02E0E46869
:1029F000002C0FD02368002BF9D02B68002B01D0BE
:102A00009C42F4D120004A464146FFF7B5FEE468F7
:102A1000002CEFD1002F06D1300002B01CBC904634
:102A20009946A246F0BD504601F0FEF9F4E7404653
:102A300000F098FC8146D4E701267642ECE7C046D8
:102A4000100B0020043D0020083D00200A4A1368B6
:102A5000002B05D10CE01A00DB680C32002B07D0EC
:102A60009842F8D1002902D1C3681360C160704751
:102A70000029FCD01060FAE7043D002010B500F0FA
:102A800045F810BDF0B5002915DD0E4B0D271A686D
:102A90000D4B4118D3185C4263410C4C5B001E5F28
:102AA00020240578B54207D093691C42FCD101303F
:102AB00015608842F5D1F0BD93691C42FCD11760C6
:102AC000F2E7C04608A300200080FCBF18A3002046
:102AD00030B5002914DD0C4B1A689369DB060FD45E
:102AE000050010240020013093691C42FCD11368BA
:102AF0002B70814203D0936901351C42F3D030BD65
:102B000003204042FBE7C04608A30020E12110B5A6
:102B10000B4B0C481B780C4B49021B780B4B186075
:102B2000FFF796F902211420FEF752F80221052042
:102B3000FEF74EF801210648FFF788FF10BDC0469A
:102B4000CC40001000800340D040001008A30020BB
:102B5000C0020020F8B557464E464546DE46E0B571
:102B600007000C00FEF74CF82B4B2679FB185A4255
:102B700053419B009846294A052513009146424639
:102B80009B5801229C46B240202365578246013A59
:102B90009B1B002D32DB9D423BDCAA4063469346E3
:102BA000134236D1002E19D0637821781B020B43D3
:102BB000A178AE1909040B43E178090619432B00EB
:102BC0000A88500BAC18002800D014001A001232EA
:102BD00092000133D45102319E42F1D15B466046EE
:102BE000424618434B4698505046FEF715F82800C9
:102BF0003CBC90469946A246AB46F8BD002B08DB8C
:102C00001100604699401D008B460142CAD0013B2D
:102C1000F6D20348FFF724FA0000D0AF800C002062
:102C200074400010F0B54546DE464E465746E0B5C6
:102C30008B4609AC490025780C0081465C44E400D1
:102C40004C44DC34884621688C46002D2CD0174E2D
:102C5000052B14D94546A0215D44ED004D442800C4
:102C600049058A461F27DC30D835514654010C43AC
:102C70000532053B04603A402E60052BF5D85946D5
:102C80004144C90049449B0652011A430B00080005
:102C9000DC331A606246D83006601A603CBC90464D
:102CA0009946A246AB46F0BD014ED1E79FE0000039
:102CB00080E00000F0B501258D400468AC434D0074
:102CC00004606C18E40004192600C836002B2AD0D2
:102CD0001F68DC3437605F6877609F68DB68B760C7
:102CE00023606B18DB001D008024D035451964017A
:102CF0002C4380252D0625602560114C0D1D8C4030
:102D0000846001242700AF403D0008318C401F2122
:102D100006680A403543056005682C430460C01806
:102D2000D8300260F0BD80277F023760F8277F022D
:102D30007760C027DC343F03B7602360D1E7C0462B
:102D400001010101F0B5C646040000B500250028C8
:102D500011D00A4B01269846094F02E0013564085C
:102D600009D02642FAD0290042463800FDF75EFF1E
:102D700001356408F5D104BC9046F0BD88400010D0
:102D80000CA30020F0B557464546DE464E46E0B55A
:102D90000D000B3583B00700162D00D89FE00723E8
:102DA0009D4300D5C4E0A94200D9C1E000F09EFADD
:102DB000F823FF339D4200D88FE2680A00D1BBE0C0
:102DC000042800D962E138239846A80980443930A4
:102DD000C100D24E71180839CC68A14219D0032322
:102DE00062689A431300521B0F2A00DDAAE0002AF2
:102DF00000DB88E003239C4608E062466368934357
:102E00005A1B0F2A00DD9DE0002A7CDAE468A1420B
:102E1000F3D1320034690832944200D190E10323A7
:102E2000616899438946491B0F2900DD62E172619F
:102E30003261002900DB87E0B94A4B46914500D951
:102E400030E1DB08FF3A9910FF3A8A40DB007168F5
:102E50009B190A4399687260E360A1609C6013004B
:102E6000CC6001218210914099426FD80B4205D16C
:102E700003229043490004300B42FBD003239846C1
:102E8000C3009946B144CC4682466346DC68A445FB
:102E900007D157E1002A00DB66E1E468A44500D1D0
:102EA00050E14246636893435A1B0F2AF2DD01202A
:102EB0008046611905436560A068E5680836C5600D
:102EC000A8604046F160B16010434860CE608E60FB
:102ED0003800E25000F012FA2000083021E01029FA
:102EE00026D8380000F002FA1025182302208B4E55
:102EF000F3181A005C68083A944200D12EE10323CB
:102F000062689A431300E268A168CA609160012276
:102F1000E318596838000A435A6000F0EFF92000BE
:102F2000083003B03CBC90469946A246AB46F0BD83
:102F30000C2300203B60F4E780213F2340208900E0
:102F4000984646E7404664E74B46E0E70323B4680B
:102F500062689A439046AA4203D3531B0F2B00DDAD
:102F600086E0230043446F4A01936F4B93461B68EE
:102F70001268EB18013200D168E16C4A9446634450
:102F80001B0B1B0300930099380000F0D9F90300D4
:102F90008146013361D0019B834200D9FFE0644B3D
:102FA000009A9A461B689C46534662441A60019BED
:102FB0001100834200D155E15B461B68013300D10B
:102FC0006CE14B46019A9B1A591853461960072326
:102FD0004A46134000D124E1082189465549D21AB6
:102FE0009144CB1A009A38004A441105090D5B1A26
:102FF00019009B4600F0A4F9431C00D142E14B4666
:10300000C01A01235844184353461B685B441900F7
:10301000534619604B46B3605860B44213D04346E0
:103020000F2B00D8E8E04346072260680C3B93432F
:10303000063A024005201A436260E2185060906030
:103040000F2B00D922E13C4B1A68914200D919603C
:103050003A4B1A68914200D919600323B468626838
:103060009A43531B954200D9C9E00F2B00DCC6E000
:103070000122290013431143651961603800B560CE
:103080006B6000F03BF9200008304AE714287AD939
:10309000542800D9BAE06E239846280B80446F303C
:1030A000C10096E65A0A042A73D9142A00D9D0E03E
:1030B00011005C325B31D20008235B429C46B2189F
:1030C000944463469A6803239846944500D1ABE044
:1030D000434651689943894500D395E092689445E9
:1030E000F6D16346DA6873686146E260A160946075
:1030F000CC60B6E6012360191D43656070613061E4
:10310000C26082601A004B460A4342603800E150B8
:1031100000F0F4F82000083003E7C0460007002064
:10312000FF010000080B00207C0C00200F100000A5
:103130004C0C002008100000740C0020780C0020BB
:1031400073688EE608239B46073BDC449B46DA44C3
:1031500043465246134200D097E637E0DC6802301F
:10316000A34200D155E6CAE60122E31859683800A7
:103170000A435A60E368A268D3609A6000F0BEF820
:1031800020000830CDE65B23984680445C30C100C7
:103190001FE69A09110039323831D2008CE7B44267
:1031A00000D05AE74F4B009A9A461B689C465346FC
:1031B000624411001A60FFE608235B429C46E1442A
:1031C0004B469B680138994500D084E04346034252
:1031D000F2D173688B4373604900994200D9B5E618
:1031E000002900D1B2E650460B4200D048E6490023
:1031F00004300B42FBD043E601234A4653603800BB
:1032000000F07CF800208CE694466AE7AA235B0075
:10321000984211D8DD3B9846E80B80447830C100D5
:10322000D7E580235B01DDE68910023B8B407268A5
:1032300013437360624657E72B4B98421CD87C239C
:103240009846A80C80447D30C100C2E5103300933D
:1032500099E6542A26D84B461A0B11006F326E316C
:10326000D20029E71B0500D0A6E60120009BB2682A
:10327000434403435360E6E6FE217E237F2089001A
:103280009846A6E5002301209B46BDE621003800B4
:10329000083100F0F3FA53461968D4E65B464A4613
:1032A0001A6094E6AA2149008A4206D84B46DA0BF6
:1032B000110078327731D200FEE60B498A4206D8F7
:1032C0004B469A0C11007D327C31D200F4E6FE228E
:1032D0007E219200F0E673687EE72B00E808083351
:1032E00005E6C0464C0C00205405000010B502480D
:1032F00000F0CCFB10BDC0462CA5002010B5024844
:1033000000F0C6FB10BDC0462CA5002010B5094B2F
:10331000094A1C68094BA83420686168FFF776F9F0
:103320000122002380185941206061604800400854
:1033300010BDC046D40200202D7F954C2DF451586D
:10334000002370B5064C050008002360FEF76CFEF4
:10335000431C00D070BD2368002BFBD02B60F9E725
:1033600040A5002010B5830725D00378002B24D07A
:103370000300032102E01A78002A1AD001330B421D
:10338000F9D119680E4A0F4C8A188A43224206D195
:10339000043319680A4A8A188A432242F8D01A006C
:1033A0001B78002B03D0013211780029FBD1101AB1
:1033B00010BD181AFCE70300E3E70020F8E7C04659
:1033C000FFFEFEFE80808080F8B506000D00140030
:1033D000002802D0836B002B4ED0A369A3600C237E
:1033E000E05E81B20B073CD52369002B39D0FF2268
:1033F000EFB2154080229201114215D02268616916
:10340000D31A8B421BDA0133A1680139A160511C28
:103410002160177062699A421AD0A389DB0701D52F
:103420000A2D15D02800F8BD0243616EA281144A0E
:103430000A40626661692268D31A8B42E3DB21008D
:10344000300000F031F9002808D122680123DBE7C1
:103450002100300000F028F90028E3D001256D425A
:10346000E0E72100300000F00DF80028F6D10C2331
:10347000E05E236981B2BAE700F070F9ADE7C046BB
:10348000FFDFFFFF334B70B5050018680C00002804
:1034900002D0836B002B3CD00C23E25E93B2190761
:1034A0000DD52169002915D0DA0721D50023A360A5
:1034B000636900205B42A361002921D070BDD90659
:1034C0003FD55B0728D4216908231343A3819BB20E
:1034D0000029E9D1A0228020920080001A40824277
:1034E000E2D02100280000F005FBA3892169DBE779
:1034F00000229B0700D46269A26000200029DDD170
:103500000C22A35E1A06D9D540221343A3810138A9
:10351000D4E700F023F9BFE7216B00290AD023008C
:103520004033994204D0280000F0A8F90C23E25E51
:103530000023236324239A430023216963602160CD
:10354000C2E709232B60402301201A43A281404295
:10355000B4E7C046D4020020F0B5C64600B50C233F
:10356000CA5E804693B20C00190740D480231B0129
:1035700013436268A381002A00DC70E0A66A002E73
:1035800031D042464146156800229BB20A60DA04F7
:1035900000D469E0226D5B0706D56368D21A236BFD
:1035A000002B01D0E36BD21A0023E1694046B047FB
:1035B000431C3DD0A3893A4A13400022626022692D
:1035C0001BB2A3812260DB0447D44346216B1D60FC
:1035D000002908D023004033994202D0404600F031
:1035E0004DF900232363002004BC9046F0BD2669FA
:1035F000002EF8D022682660951B00229B0700D180
:103600006269A260002D04DCEDE736182D1A002D4A
:10361000E9DD2B003200E1694046676AB8470028BF
:10362000F3DC40220120A38940421343A381DBE75E
:10363000434619681D29F4D81A4B0122CB409A43FE
:10364000EFD1A389164E6260334022691BB2A38179
:103650002260DB04B9D50029B7D12065B5E7E26B5C
:10366000002A00DD8AE7BEE700220123E169404627
:10367000B0470200431C02D0A389A66A8BE74346E9
:103680001B68002BF8D01D2B01D0162B03D143460D
:1036900000201D60A8E74021A3890B43A381A3E775
:1036A000FFF7FFFF0100402070B505000C00002867
:1036B00002D0836B002B16D00C22A35E0026002BB9
:1036C0000FD0626ED20701D49B0513D521002800CC
:1036D000FFF742FF636E0600DB0702D4A3899B0558
:1036E00004D5300070BD00F039F8E5E7A06D00F0BA
:1036F000CFF9F6E7A06D00F0C9F9E7E710B5024988
:1037000000F09AF910BDC0466D3C0010002310B5C2
:10371000040003604360836081814366C28103616A
:1037200043618361082200215C30FFF719F8200013
:10373000064BE4612362064B58306362054BA3627B
:10374000054BE36200F09EF910BDC046853B0010BA
:10375000AD3B0010E93B0010153C001070B50400B3
:10376000144D280000F092F9A36B002B1DD1124AD2
:103770000421E263B8229200A350B92303229B00E4
:10378000E2500833E218043BE25060680022FFF781
:10379000BDFF01220921A068FFF7B8FF0222122114
:1037A000E068FFF7B3FF0123A363280000F070F97E
:1037B00070BDC04628A50020FD36001010B5024897
:1037C00000F064F910BDC0463CA5002010B50248C9
:1037D00000F05EF910BDC0463CA50020F8B50C0015
:1037E0000600FFF783FD204FBB685D6803239D4300
:1037F0001E4B2C1B9C466444240B1D4B013C240394
:103800009C4207DD00213000FFF79AFDBB685B1981
:10381000984204D03000FFF771FD0020F8BD6142EE
:103820003000FFF78DFD431C0DD00122BB682D1B1E
:1038300015435D600F4B30001A68141B1C60FFF7C6
:103840005DFD0120EAE700213000FFF779FDBA684D
:10385000831A0F2BDEDD08490968401A0549086004
:1038600001210B435360D5E700070020EF0F000054
:10387000FF0F00004C0C0020080B0020F8B50400DE
:103880000D1E3CD0FFF732FD29000839486801239E
:10389000050003269D434A199C46614F5368B34374
:1038A000BE68B24256D06646536006420AD13E0018
:1038B00008680836091A2D188868B04265D0CE68A5
:1038C000C660B0600120D6187668064233D0554BEA
:1038D000284348604D519D4212D8ED08FF3BAA1085
:1038E000FF3B93407A68ED0013437B60EF19BB68A0
:1038F000CF608B60B960D9602000FFF7FFFCF8BD96
:10390000680A042850D8A809020039303832C000AB
:10391000381808388368032698424CD05A68B24356
:10392000954230D29B689842F8D1C368CB608860DA
:103930009960C160E0E7ED183B4E9368B34242D016
:10394000D2682843DA609360364B48604D519D42FF
:10395000D6D8C2E76246EB18024206D10A68891A35
:1039600088689B18CA68C260906001221A434A6046
:103970002E4AB96012689342BED32D4B20001968BD
:10398000FFF72CFFB8E71800CFE76646D01840686D
:1039900030423FD190685D19D368C3609860634638
:1039A0002B434B604D51A7E7142814D802005C301C
:1039B0005B32C000ACE70123921093407A68134356
:1039C0007B600300B2E72843D9609960CB608B60CD
:1039D00048604D5190E7542805D8280B02006F30FD
:1039E0006E32C00094E7AA225200904205D8E80B3C
:1039F000020078307732C0008AE70E4A904205D83C
:103A0000A80C02007D307C32C00081E7FE207E22BF
:103A100080007DE763462B434B6015606CE7C04632
:103A200000070020FF010000080700200C0B002009
:103A30007C0C002054050000F8B54746CE4680B502
:103A4000B8278046BF00474489460026002F14D07F
:103A50007B68BC685D1E0DD4A389012B07D90E229B
:103A6000A35E013303D021004046C84706436834B3
:103A7000013DF1D23F68002FEAD130000CBC9046E6
:103A80009946F8BD7047C0467047C0467047C0466B
:103A90007047C04670B50C001E000E23C95E90B082
:103AA0001500002915DB01AA00F046F9002810DBFB
:103AB000F022029B120213400D4A80209446634478
:103AC0005A42534133608023DB002B60000110B069
:103AD00070BD00233360A3891B0603D5402300205B
:103AE0002B60F4E78023DB002B600020EFE7C0466B
:103AF00000E0FFFF70B58B8982B006000C009B07C9
:103B000007D523004333236023610123636102B09F
:103B100070BD01AB6A46FFF7BDFF0099050030009C
:103B2000FFF730F900281ED08022154BF363A389DC
:103B300020601343009A1BB26261019AA381206145
:103B4000002A02D12B43A381E1E70E23E15E30007E
:103B500000F006F9002810D00322A3899343012224
:103B600013431BB2EEE70C22A35E9A05CFD40322C7
:103B7000934302221343A381C3E70C22A35EE1E730
:103B8000FD36001070B50C000E25495F00F00EF9EF
:103B9000002803DB236D1B18236570BDA389024A2F
:103BA0001340A381F9E7C046FFEFFFFFF8B5160009
:103BB0001F000C228B5E05000C00DA0507D50E23D2
:103BC000C95E0022022300F0DDF80C22A35E054A44
:103BD00028001340A38132000E23E15E3B0000F079
:103BE0001FF8F8BDFFEFFFFF70B50C000E25495F11
:103BF00000F0C8F8431C06D08023A2895B01134360
:103C0000A381206570BDA389014A1340A381F9E710
:103C1000FFEFFFFF10B50E23C95E00F015F810BDD1
:103C200070B50500080011000022064C22601A0041
:103C3000FEF7B6FE431C00D070BD2368002BFBD0FE
:103C40002B60F9E740A50020002370B5064C050065
:103C50000800236000F0BEF8431C00D070BD23684C
:103C6000002BFBD02B60F9E740A5002070B50500C4
:103C70000C1E40D0002802D0836B002B3ED00126C2
:103C8000636E334233D1A3899B0543D521002800BD
:103C9000FFF762FCE36A0600002B04D0E16928000C
:103CA0009847002844DBA3891B062AD4216B0029EE
:103CB00008D023004033994202D02800FFF7DEFDF0
:103CC00000232363616C002904D02800FFF7D6FD90
:103CD00000236364FFF772FD0023A381636EDB079B
:103CE00014D5A06DFFF7D0FEFFF770FD04E00C22A5
:103CF000A35E002BCAD10026300070BDFFF72EFD59
:103D0000BDE721692800FFF7B9FDCFE7A06DFFF7F8
:103D1000BFFEE6E7A06DFFF7B9FE0C22A35E002B05
:103D2000B4D1636E1E40E6D1A06DFFF7B1FEE3E7AC
:103D300001267642B7E7C046002370B5074C050060
:103D400008001100236000F04DF8431C00D070BD46
:103D50002368002BFBD02B60F9E7C04640A500206C
:103D6000002370B5064C05000800236000F042F8FF
:103D7000431C00D070BD2368002BFBD02B60F9E7FB
:103D800040A5002070B50500080011000022064C77
:103D900022601A0000F036F8431C00D070BD236882
:103DA000002BFBD02B60F9E740A5002070B5050083
:103DB000080011000022064C22601A00FEF7A8FD40
:103DC000431C00D070BD2368002BFBD02B60F9E7AB
:103DD00040A5002058220120014B40421A60704744
:103DE00040A5002058220120014B40421A60704734
:103DF00040A500205822024B00201A607047C046A0
:103E000040A5002058220120014B40421A60704713
:103E100040A50020F8B5C04601B40248844601BC64
:103E2000604700BF0501002001B40248844601BC80
:103E3000604700BFE101002001B40248844601BC94
:103E4000604700BF0902002001B40248844601BC5B
:103E5000604700BFC100002001B40248844601BC95
:103E6000604700BF9901002001B40248844601BCAC
:083E7000604700BF5101002072
:103E7800287374696C6C290028666F7277617264A4
:103E880029000000286261636B7761726429000071
:103E980057533238313220706172616C6C656C0036
:103EA80025030010C83E0010D9040010D03E0010B1
:103EB80029050010DC3E001025040010E83E001023
:103EC800536E616B6573210052616E646F6D20647F
:103ED80061746100537061726B6C6573000000005F
:103EE8004772657973000000F83E001004FF000077
:103EF80020600BA101A403A1FFFFFFFFFFFFFF7FCD
:103F0800486172647761726520616C61726D202509
:103F18006420616C726561647920636C61696D65A8
:103F280064000000486172642061737365727400F4
:103F38000A2A2A2A2050414E4943202A2A2A0A00BE
:103F48000A0000006D697373696E6720646F75629B
:103F58006C652066756E6374696F6E00060052505A
:103F6800BBFF3CB6F83F0010060052509A23561883
:103F7800AC3F001006005250E182887F9C3F001041
:103F880006005250D3F07542943F001052656C659C
:103F980061736500626F6F74325F773235713038E4
:103FA8003000000068747470733A2F2F6769746862
:103FB80075622E636F6D2F726173706265727279AC
:103FC80070692F7069636F2D6578616D706C6573AA
:103FD8002F747265652F484541442F70696F2F779C
:103FE8007332383132000000312E342E3000000098
:103FF80061646166727569745F717470795F7270FB
:10400800323034300000000070696F5F77733238E7
:1040180031325F706172616C6C656C004F63742043
:1040280031342032303232000D0A0000060052507E
:1040380053B4F4A160400010080052509242290085
:104048005541525420737464696E000055415254AE
:10405800207374646F7574005541525420737464EE
:10406800696E202F207374646F7574004E6F207012
:10407800726F6772616D2073706163650000000084
:10408800444D41206368616E6E656C20256420692B
:104098007320616C726561647920636C61696D6518
:0440A80064000000B0
:1040AC00B4020010A80200109C020010643F001023
:1040BC0090020010703F00107C3F0010883F0010F1
:0840CC003440001040400010D8
:1040D40010B5002406E00368BFF35F8F1C6081F312
:1040E400108820BF0268EFF3108172B61368002BAA
:1040F400FCD0BFF35F8F0422835E002BEBDD013B1A
:1041040083800368BFF35F8F00221A6081F31088F5
:1041140010BDC04610B50268EFF3108172B6136883
:10412400002BFCD0BFF35F8F0422835E0624025F62
:104134009A4208DC0368BFF35F8F00221A6081F3A0
:104144001088002010BD013383800368BFF35F8FA4
:1041540000221A6081F3108840BF0120F2E7C046B4
:10416400D02330B500251B065D57002406E0036804
:10417400BFF35F8F1C6081F3108820BF0268EFF3E8
:10418400108172B61368002BFCD0BFF35F8F0379E4
:104194007F2BECD905710368BFF35F8F00221A608F
:1041A40081F3108830BDC046030010B50068EFF3FA
:1041B400108472B60268002AFCD0BFF35F8F042219
:1041C4009A56002A0BDB00290FD000200A601B68D6
:1041D400BFF35F8F00221A6084F3108810BDD022D1
:1041E4001206126801201A71F1E70020EFE7C046B9
:1041F4000268EFF3108172B61368002BFCD0BFF392
:104204005F8FFF2303710368BFF35F8F00221A607F
:1042140081F3108840BF70477047C04638A1002022
:10422400C000000040000000F8A1002000010000D0
:10423400000100000C020020180200201000000001
:104244000000000000000100000000000000000069
:104254000000020000000000000000000000030055
:1042640000000000000000000000FF00000000004B
:1042740000B5486801318E46004770460938014947
:10428400884700BDF50E00109002002000000000D9
:10429400300B0020C43C002000000000000000009F
:1042A400D43C0020000000000000000010000000CA
:1042B400503300004C3300005433000052330000EC
:1042C4004D5300004D4300005334000043340000BC
:1042D400852A001000000000D12A00100000000010
:1042E40000010000D802002000000000C4050020E6
:1042F4002C060020940600200000000000000000AE
:1043040000000000000000000000000000000000A9
:104314000000000000000000000000000000000099
:104324000000000000000000000000000000000089
:104334000000000000000000000000000000000079
:104344000000000000000000000000000000000069
:104354000000000000000000000000000000000059
:104364000000000000000000000000000000000049
:104374000000000000000000000000000000000039
:104384000000000000000000000000000000000029
:1043940001000000000000000E33CDAB34126DE6C6
:1043A400ECDE05000B00000000000000000000002F
:1043B40000000000000000000000000000000000F9
:1043C40000000000000000000000000000000000E9
:1043D40000000000000000000000000000000000D9
:1043E40000000000000000000000000000000000C9
:104714000000000000000000000700200007002047
:1047240008070020080700201007002010070020B9
:104734001807002018070020200700202007002069
:104744002807002028070020300700203007002019
:1047540038070020380700204007002040070020C9
:104764004807002048070020500700205007002079
:104774005807002058070020600700206007002029
:1047840068070020680700207007002070070020D9
:104794007807002078070020800700208007002089
:1047A4008807002088070020900700209007002039
:1047B4009807002098070020A0070020A0070020E9
:1047C400A8070020A8070020B0070020B007002099
:1047D400B8070020B8070020C0070020C007002049
:1047E400C8070020C8070020D0070020D0070020F9
:1047F400D8070020D8070020E0070020E0070020A9
:10480400E8070020E8070020F0070020F007002058
:10481400F8070020F8070020000800200008002006
:1048240008080020080800201008002010080020B4
:104834001808002018080020200800202008002064
:104844002808002028080020300800203008002014
:1048540038080020380800204008002040080020C4
:104864004808002048080020500800205008002074
:104874005808002058080020600800206008002024
:1048840068080020680800207008002070080020D4
:104894007808002078080020800800208008002084
:1048A4008808002088080020900800209008002034
:1048B4009808002098080020A0080020A0080020E4
:1048C400A8080020A8080020B0080020B008002094
:1048D400B8080020B8080020C0080020C008002044
:1048E400C8080020C8080020D0080020D0080020F4
:1048F400D8080020D8080020E0080020E0080020A4
:10490400E8080020E8080020F0080020F008002053
:10491400F8080020F8080020000900200009002001
:1049240008090020080900201009002010090020AF
:10493400180900201809002020090020200900205F
:10494400280900202809002030090020300900200F
:1049540038090020380900204009002040090020BF
:10496400480900204809002050090020500900206F
:10497400580900205809002060090020600900201F
:1049840068090020680900207009002070090020CF
:10499400780900207809002080090020800900207F
:1049A400880900208809002090090020900900202F
:1049B4009809002098090020A0090020A0090020DF
:1049C400A8090020A8090020B0090020B00900208F
:1049D400B8090020B8090020C0090020C00900203F
:1049E400C8090020C8090020D0090020D0090020EF
:1049F400D8090020D8090020E0090020E00900209F
:104A0400E8090020E8090020F0090020F00900204E
:104A1400F8090020F8090020000A0020000A0020FC
:104A2400080A0020080A0020100A0020100A0020AA
:104A3400180A0020180A0020200A0020200A00205A
:104A4400280A0020280A0020300A0020300A00200A
:104A5400380A0020380A0020400A0020400A0020BA
:104A6400480A0020480A0020500A0020500A00206A
:104A7400580A0020580A0020600A0020600A00201A
:104A8400680A0020680A0020700A0020700A0020CA
:104A9400780A0020780A0020800A0020800A00207A
:104AA400880A0020880A0020900A0020900A00202A
:104AB400980A0020980A0020A00A0020A00A0020DA
:104AC400A80A0020A80A0020B00A0020B00A00208A
:104AD400B80A0020B80A0020C00A0020C00A00203A
:104AE400C80A0020C80A0020D00A0020D00A0020EA
:104AF400D80A0020D80A0020E00A0020E00A00209A
:104B0400E80A0020E80A0020F00A0020F00A002049
:104B1400F80A0020F80A0020FFFFFFFF000002004F
:104B2400000000000000000051270010B124001014
:0C4B34007D250010F1260010ED0200109D
:04000005100001E9FD
:00000001FF
